:020000040000FA
:100000000C9461080C942F410C9404410C94D94039
:100010000C94AE400C9483400C9458400C942D40AA
:100020000C9402400C9492080C9492080C94920840
:100030000C9492080C94A9420C9492080C94920887
:100040000C9492080C9492080C9492080C949208C8
:100050000C947E420C9492080C9492080C94B83F35
:100060000C9492080C948E3F0C94643F0C9492086C
:100070000C9492080C9492080C9492080C94920898
:100080000C9492080C9492080C9492080C94920888
:100090000C9492080C9492080C9492080C945A4177
:1000A0000C9492080C9492080C9492080C94920868
:1000B0000C9492080C9492080C9492080C94920858
:1000C0000C9492080C9492080C9492080C943A3F69
:1000D0000C94103F0C9492080C94E63E0C94BC3E99
:1000E0000C9492080C949C310C948A520C94390B09
:1000F0000C94C70D0C94040B0C94310B0C945831D8
:100100000C94C00D0C943F0B0C947B320C94F9337F
:100110000C94F0080C944A520C94EB330C94612E1E
:100120000C946E500C94130B0C94A5530C94E33365
:100130000C94E42D0C942F550C942A0A0C947450B2
:100140000C94D0090C94B10D0C940C0B0C947F55AD
:100150000C94100B0C94BB2E0C94B00D0C948E2EA2
:100160000C94BC520C94790A0C946C500C94294356
:100170000C9473520C948A4F0C94F3310C946B09C9
:100180000C94E82E0C942B0B0C9472500C94230BB3
:100190000C94AE0D0C94080B0C94280E0C943E0B92
:1001A0000C94DA510C9493530C94290C0C94430B3B
:1001B0000C9416090C94E0330C94FE0A0C94DA3279
:1001C0000C94350B0C94EE330C9479330C9432323E
:1001D0000C94DD330C94EB510C942C530C941D0BAC
:1001E0000C94022E0C948F520C94AF0D0C947A3117
:1001F0000C949E530C94FA500C9409340C941C32B9
:100200000C949A120C94DE090C945A320C94342EED
:100210000C9401340C9470500C94FF510C945C09B4
:100220000C94AB320C94CC080C94F6330C94190B50
:100230000C942B0E0C94270B0C94F40D0000210051
:10024000240027002A002D003000330001010000A7
:10025000040107010A0100002200250028002B00EC
:100260002E003100340002010000050108010B01DD
:10027000000020002300260029002C002F0032005F
:100280000001000003010601090105050505070538
:1002900008080808020202020A0A08080404040402
:1002A000010101010101010103030303030303032E
:1002B000040707070C0C0C0C0C0C0C0C02020202BD
:1002C00006060606060606060B0B0B0B0B0B0B0BA6
:1002D0000102102020080810204010204080020158
:1002E000020108040201010204081020408080403D
:1002F000201008040201800402018040201008043C
:1003000002010804020101020408102040800102D9
:1003100004081020408000000A0B02090C0D0E0892
:1003200007030401000000000000000000000000BE
:1003300000000000000000000000000000000000BD
:10034000000012111000000000000000000000007A
:10035000000000000000000000000000000000009D
:10036000000000000000000000000000000000008D
:1003700000001FCC000C000000000000000008007E
:10038000300060000800300060000000022003FC24
:100390001E20022003FC1E200220000000000E1878
:1003A00011043FFF10840C78000000000F0010843F
:1003B0000F3800C0077818840078000000780F8498
:1003C00010C411240E9800E400840008080068009E
:1003D00070000000000000000000000000000000AD
:1003E000000007E01818200440020000000040024E
:1003F0002004181807E0000000000000024002403E
:1004000001800FF001800240024000000080008067
:1004100000800FF800800080008000000001000DC7
:10042000000E00000000000000000000000000803E
:100430000080008000800080008000800000000CB0
:10044000000C00000000000000000000000000069A
:10045000001800600180060018002000000007F06E
:10046000080810041004080807F000000000080441
:1004700008041FFC000400040000000000000E0C33
:1004800010141024104411840E0C000000000C18ED
:1004900010041104110412880C700000000000E028
:1004A0000320042408241FFC0024000000001F98DF
:1004B000108411041104108810700000000007F06F
:1004C00008881104110418880070000000001C0046
:1004D000100010FC13001C001000000000000E387B
:1004E00011441084108411440E38000000000700ED
:1004F000088C10441044088807F000000000000039
:100500000000030C030C00000000000000000000CD
:100510000001010600000000000000000000008053
:1005200001400220041008081004000002200220EC
:1005300002200220022002200220000000001004FD
:1005400008080410022001400080000000000E0096
:100550001200100C106C10800F00000003E00C184B
:1005600013E4142417C4082807D000000004003C3A
:1005700003C41C40074000E4001C000410041FFCDE
:100580001104110411040E880070000003E00C181F
:1005900010041004100410081C10000010041FFCAC
:1005A000100410041004080807F0000010041FFCD9
:1005B0001104110417C410040818000010041FFCD3
:1005C0001104110017C010000800000003E00C180F
:1005D0001004100410441C780040000010041FFC9C
:1005E00010840080008010841FFC100400001004A0
:1005F00010041FFC100410040000000000030001A0
:10060000100110011FFE10001000000010041FFC5C
:10061000110403801464181C1004000010041FFC53
:100620001004000400040004000C000010041FFC6F
:100630001F0000FC1F001FFC1004000010041FFC22
:100640000C04030000E010181FFC100007F008085D
:10065000100410041004080807F0000010041FFC28
:1006600010841080108010800F00000007F0081820
:1006700010241024101C080A07F2000010041FFCAC
:100680001104110011C011300E0C000400000E1CEA
:1006900011041084108410441C380000180010004D
:1006A00010041FFC100410001800000010001FF8B8
:1006B00010040004000410041FF8100010001E00B5
:1006C00011E0001C007013801C0010001FC0103CC3
:1006D00000E01F0000E0103C1FC000001004180CD8
:1006E000163401C001C01634180C100410001C0090
:1006F000130400FC13041C00100000000804101C6C
:100700001064108413041C04101800000000000082
:1007100000007FFE40024002400200000000300066
:100720000C0003800060001C000300000000400279
:10073000400240027FFE00000000000000000000B8
:1007400020004000400040002000000000010001A7
:100750000001000100010001000100010000400053
:100760004000200000000000000000000000009891
:10077000012401440144014400FC000410001FFC5A
:10078000008801040104008800700000000000706F
:1007900000880104010401040088000000000070CA
:1007A00000880104010411081FFC0004000000F887
:1007B000014401440144014400C800000000010458
:1007C00001040FFC1104110411001800000000D6F0
:1007D00001290129012901C90106000010041FFC9B
:1007E000008401000100010400FC00040000010479
:1007F000190419FC000400040000000000000003BC
:1008000000010101190119FE0000000010041FFC85
:100810000024004001B4010C010400000000100499
:1008200010041FFC0004000400000000010401FC8F
:100830000104010001FC0104010000FC010401FCB1
:10084000008401000100010400FC0004000000F825
:10085000010401040104010400F80000010101FF8A
:100860000085010401040088007000000000007091
:10087000008801040104010501FF000101040104D5
:1008800001FC00840104010001800000000000CC94
:10089000012401240124012401980000000001002A
:1008A000010007F80104010400000000010001F844
:1008B000000400040004010801FC000401000180A0
:1008C0000170000C001001600180010001F0010CBA
:1008D000003001C00030010C01F0010000000104F3
:1008E000018C00740170018C010400000101018180
:1008F0000171000E001801600180010000000184F8
:10090000010C013401440184010C000000000000CE
:100910000000000001003EFC400240020000000018
:1009200000000000FFFF0000000000000000400287
:1009300040023EFC010000000000000000006000DA
:1009400080008000400040002000200000000000E7
:100950000000000000000000000000003F40000018
:1009600000000000000030004000300040000000A7
:1009700009000BC03D000BC03D00090018C0244019
:100980007FE0224031800000180024C01B000D8051
:100990003240018003801C4027401C8007400040FB
:1009A00010006000000000000000000000000000D7
:1009B00000001F80204040200000402020401F8079
:1009C00000000000090006001F800600090000006A
:1009D000040004003F8004000400000000100060D8
:1009E00000000000000000000400040004000400F7
:1009F00004000000000000400000000000000000B3
:100A0000002001C006003800400000001F80204088
:100A1000204020401F800000000010403FC00040E8
:100A20000000000018C0214022402440184000006F
:100A300010802040244024401B80000002000D0054
:100A400011003FC0014000003C802440244024406D
:100A5000238000001F802440244034400380000095
:100A60003000200027C03800200000001B802440F8
:100A7000244024401B8000001C0022C02240224051
:100A80001F8000000000000008400000000000007F
:100A900000000000046000000000000000000400EE
:100AA0000A001100208040400900090009000900E7
:100AB0000900000000004040208011000A000400EE
:100AC0001800200023402400180000001F80204050
:100AD000274029401F400000004007C039000F0098
:100AE00001C0004020403FC0244024401B80000043
:100AF0001F802040204020403080000020403FC028
:100B0000204020401F80000020403FC024402E4055
:100B100030C0000020403FC024402E0030000000C4
:100B20000F001080204022403380020020403FC050
:100B3000040004003FC02040204020403FC020402F
:100B4000204000000060202020203FC02000200026
:100B500020403FC024400B0030C0204020403FC018
:100B600020400040004000C03FC03C0003C03C00AB
:100B70003FC0000020403FC00C4023003FC0200089
:100B80001F802040204020401F80000020403FC0A8
:100B900024402400180000001F802140214020E054
:100BA0001FA0000020403FC02440260019C0004084
:100BB00018C02440244022403180000030002040F2
:100BC0003FC020403000000020003F800040004037
:100BD0003F80200020003E0001C0070038002000B8
:100BE000380007C03C0007C038000000204039C072
:100BF000060039C0204000002000384007C03840BF
:100C000020000000304021C02640384020C00000B5
:100C1000000000007FE04020402000000000700045
:100C20000C000380004000000000402040207FE0D6
:100C30000000000000002000400020000000000034
:100C40000010001000100010001000100000000044
:100C50004000000000000000000002800540054048
:100C600003C0004020003FC0044004400380000057
:100C700000000380044004400640000000000380A0
:100C8000044024403FC00040000003800540054070
:100C900003400000000004401FC024402440200006
:100CA000000002E0055005500650042020403FC0DF
:100CB0000440040003C000400000044027C000407E
:100CC0000000000000100010041027E000000000E9
:100CD00020403FC00140070004C0044020402040A5
:100CE0003FC000400040000007C0040007C00400EF
:100CF00003C00000044007C00440040003C00040DB
:100D0000000003800440044003800000041007F04A
:100D1000045004400380000000000380044004509D
:100D200007F00010044007C0024004000400000067
:100D3000000006400540054004C00000000004001B
:100D40001F80044000400000040007800040044071
:100D500007C000400400070004C001800600040032
:100D6000060001C0070001C006000000044006C0E4
:100D7000010006C0044000000410071004E00180D8
:100D8000060004000000044005C0064004400000C6
:100D90000000000004007BE0402000000000000094
:100DA0000000FFF000000000000040207BE0040095
:100DB00000000000400080004000200020004000B3
:100DC000000000000000000000005F0000000000C4
:100DD000000007000700000000147F147F140000CB
:100DE00000242A7F2A1200000023130864620000F6
:100DF00000060909060000000000050300000000CD
:100E0000001C2241000000000041221C00000000E4
:100E100000082A1C2A0800000008083E08080000F4
:100E200000A060000000000000080808080800009A
:100E300000606000000000000020100804020000B4
:100E4000003E5149453E00000000427F4000000046
:100E500000625149494600000022414949360000DC
:100E6000001814127F100000002745454539000086
:100E7000003C4A49493000000001710905030000A7
:100E8000003649494936000000064949291E00003C
:100E900000003636000000000000AC6C00000000CE
:100EA000000814224100000000141414141400005F
:100EB0000041221408000000000201510906000050
:100EC00000324979413E0000007E0909097E000098
:100ED000007F494949360000003E4141412200005F
:100EE000007F4141221C0000007F49494941000028
:100EF000007F090909010000003E414151720000D4
:100F0000007F0808087F00000000417F41000000CA
:100F1000002040413F010000007F081422410000F2
:100F2000007F404040400000007F020C027F000034
:100F3000007F0408107F0000003E4141413E000058
:100F4000007F090909060000003E4151215E0000B2
:100F5000007F09192946000000264949493200004E
:100F60000001017F01010000003F4040403F0000C0
:100F7000001F2040201F0000003F4038403F00007D
:100F800000631408146300000003047804030000E5
:100F90000061514945430000007F414100000000CD
:100FA00000020408102000000041417F0000000002
:100FB00000040201020400000080808080800000A4
:100FC0000001020400000000002054545478000086
:100FD000007F4844443800000038444428000000A2
:100FE00000384444487F000000385454541800002E
:100FF00000087E09020000000018A4A4A47C0000E0
:10100000007F08040478000000007D00000000005C
:101010000080847D00000000007F10284400000054
:1010200000417F4000000000007C041804780000AC
:10103000007C08047C0000000038444438000000B4
:1010400000FC24241800000000182424FC000000E8
:1010500000007C08040000000048545424000000F4
:1010600000047F4400000000003C40407C00000081
:10107000001C2040201C0000003C4030403C000090
:101080000044281028440000001CA0A07C000000A0
:10109000004464544C440000000836410000000045
:1010A00000007F0000000000004136080000000042
:1010B000000201010201000000020505020000001B
:1010C000294311241FBECFEFD1E2DEBFCDBF00E028
:1010D0000CBF1AE0A0E0B2E0E8E3F6EB00E00BBFE3
:1010E00002C007900D92A236B107D9F721E1A2E61E
:1010F000BAE001C01D92AC3CB207E1F718E0C1E6CE
:10110000D8E000E006C021970109802FFE010E946F
:10111000E757C036D10780E00807A9F70E943D4491
:101120000C941A5B0C940000CF93DF93EC01E885DC
:10113000F9851995688379838A839B831C821D8234
:101140001E821F8281E08A87DF91CF9108953FB789
:10115000F8948091FC0B9091FD0BA091FE0BB09147
:10116000FF0B26B5A89B05C02F3F19F00196A11DC6
:10117000B11D3FBFBA2FA92F982F8827BC01CD01E1
:10118000620F711D811D911D42E0660F771F881F40
:10119000991F4A95D1F708952FB7F8946091F80BED
:1011A0007091F90B8091FA0B9091FB0B2FBF089572
:1011B0000E94CC0828EE33E040E050E00E947E57C9
:1011C000CA01B90108958CBD9DBD089591E0909329
:1011D0003B0F80935D0F10923C0F10925E0F0895AD
:1011E00090910E0F80910D0F2FEF3FEF981748F45D
:1011F000E92FF0E0E351F14F208130E09F5F9093C1
:101200000E0FC901089590910E0F80910D0F2FEFD1
:101210003FEF981748F4E92FF0E0E351F14F2081B8
:1012200030E09F5F90930E0FC9010895AF92BF9277
:10123000CF92DF92EF92FF920F931F93CF93DF93A2
:101240006C017B018B01040F151FEB015E01AE18D1
:10125000BF08C017D10759F06991D601ED91FC91F3
:101260000190F081E02DC6011995892B79F7C50110
:10127000DF91CF911F910F91FF90EF90DF90CF9072
:10128000BF90AF900895FC01A089B1898C91A68987
:10129000B78982FD0FC09C91818D8F5F8F73228DE6
:1012A000821749F0A18DAE0FBF2FB11D5D969C93A3
:1012B000818F08958C910895FC01538D448D252FC5
:1012C00030E0842F90E0821B930B541710F0CF96E0
:1012D000089501970895FC01918D828D981761F012
:1012E000A28DAE0FBF2FB11D5D968C91928D9F5F29
:1012F0009F73928F90E008958FEF9FEF08958F92E4
:101300009F92AF92BF92EF92FF920F931F93CF9352
:10131000DF937B018C01D0E0C0E00E94CC08609399
:10132000680F7093690F80936A0F90936B0F80E63C
:101330009FE00E946B0997FF27C00E94CC08809015
:10134000680F9090690FA0906A0FB0906B0F6819AA
:1013500079098A099B098090640F9090650FA0908D
:10136000660FB090670F681579058A059B05F8F23E
:10137000CE01DF91CF911F910F91FF90EF90BF9021
:10138000AF909F908F9008958D30910589F3F8016B
:1013900081938F012196EC16FD0609F0BECFE8CFB0
:1013A000FC01918D828D981731F0828DE80FF11D2F
:1013B000858D90E008958FEF9FEF0895FC01918D4A
:1013C000228D892F90E0805C9F4F821B91098F7343
:1013D0009927089580E69FE00E94DE0921E0892B8D
:1013E00009F420E0822F08958DEF9FE00E94DE092E
:1013F00021E0892B09F420E0822F08958AE990E109
:101400000E94DE0921E0892B09F420E0822F089553
:10141000FC01A48DA80FB92FB11DA35ABF4F2C9169
:10142000848D90E001968F739927848FA689B78960
:101430002C93A089B1898C91837080648C93938D57
:10144000848D981306C00288F389E02D80818F7DFA
:1014500080830895EF92FF920F931F93CF93DF93B2
:10146000EC0181E0888F9B8D8C8D98131AC0E889E0
:10147000F989808185FF15C09FB7F894EE89FF89AF
:101480006083E889F98980818370806480839FBF4D
:1014900081E090E0DF91CF911F910F91FF90EF904D
:1014A0000895F62E0B8D10E00F5F1F4F0F7311275D
:1014B000E02E8C8D8E110CC00FB607FCFACFE88998
:1014C000F989808185FFF5CFCE010E94080AF1CF0E
:1014D000EB8DEC0FFD2FF11DE35AFF4FF0829FB70C
:1014E000F8940B8FEA89FB8980818062CFCF0C94BE
:1014F0002A0ACF93DF93EC01888D8823B9F0AA895B
:10150000BB89E889F9898C9185FD03C0808186FDBE
:101510000DC00FB607FCF7CF8C9185FFF2CF80810D
:1015200085FFEDCFCE010E94080AE9CFDF91CF9170
:101530000895CF93DF93EC010E94790AEA89FB8931
:1015400080818F7E8083EA89FB898081877F808389
:10155000EA89FB8980818F778083EA89FB89808192
:101560008F7D80838A8D898FDF91CF91089580E070
:1015700090E0892B29F00E94FE0981110E94000051
:1015800080E090E0892B49F080E090E0892B29F001
:101590000E94000081110E94000080E090E0892BF1
:1015A00029F00E94F40981110E94000080E090E07F
:1015B000892B29F00E94EA0981110C9400000895FA
:1015C0008150823108F05AC0E82FF0E08827E451BA
:1015D000F54F8F4F0C94E7570C0B100BFE0A040BC2
:1015E000080B3E0B130B190B1D0B230B270B2B0B9F
:1015F000310B350B3E0B390B3F0B430B80918000B9
:101600008F77809380000895809180008F7DF9CF3F
:1016100080918000877FF5CF84B58F7784BD089552
:1016200084B58F7DFBCF8091B0008F778093B00021
:1016300008958091B0008F7DF9CF809190008F77D1
:10164000809390000895809190008F7DF9CF8091D4
:101650009000877FF5CF8091A0008F778093A000C6
:1016600008958091A0008F7DF9CF8091A000877FA1
:10167000F5CF809120018F7780932001089580918C
:1016800020018F7DF9CF80912001877FF5CFCF9307
:10169000DF93282F30E0F901EA5EFC4F8491F901D5
:1016A000E053FD4FD491F901E657FD4FC491CC238F
:1016B000A1F081110E94E00AEC2FF0E0EE0FFF1F75
:1016C000E059FD4FA591B491EC91ED2381E090E0BC
:1016D00009F480E0DF91CF91089580E090E0FACFA7
:1016E0001F93CF93DF93282F30E0F901EA5EFC4F80
:1016F0008491F901E053FD4FD491F901E657FD4F74
:10170000C491CC23A9F0162F81110E94E00AEC2F7E
:10171000F0E0EE0FFF1FEA5AFD4FA591B4918FB78D
:10172000F894EC91111108C0D095DE23DC938FBFA3
:10173000DF91CF911F910895DE2BF8CFCF93DF93E8
:1017400090E0FC01E053FD4F249186579D4FFC0132
:1017500084918823C9F090E0880F991FFC01E45C14
:10176000FD4FA591B491FC01EA5AFD4FC591D4916A
:1017700061110DC09FB7F8948C91209582238C93B2
:101780008881282328839FBFDF91CF9108956230FD
:1017900051F49FB7F8943C91822F809583238C93CA
:1017A000E8812E2BEFCF8FB7F894EC912E2B2C9352
:1017B0008FBFEACF90917B00986090937B0020913F
:1017C000130290E4299F900111248770822B80934B
:1017D0007C0080917A00806480937A0080917A0006
:1017E00086FDFCCF809178009091790008958F92CA
:1017F0009F92AF92BF92CF92DF92EF92FF924B01F6
:101800005C010E94A7086B017C010E94A7086C196B
:101810007D098E099F09683E734081059105A8F3F3
:1018200021E0821A9108A108B10888EEC80E83E071
:10183000D81EE11CF11C81149104A104B10429F704
:10184000FF90EF90DF90CF90BF90AF909F908F90E0
:1018500008950895CF92DF92EF92FF920F931F9316
:10186000CF93DF93EC01CC80DD80EE80FF802A8572
:1018700060E070E0CB01222359F0E885F9851995E5
:10188000088119812A813B81601B710B820B930BAC
:101890006C0D7D1D8E1D9F1DDF91CF911F910F91AE
:1018A000FF90EF90DF90CF9008952091D20B260FFC
:1018B0003327331F21323105ECF42091350FFC0121
:1018C00090E080E0243069F082E00895A091D20B8E
:1018D0002191AC014055544FA40FB52FB11D2C934D
:1018E0000196861798F38091D20B680F6093D20B04
:1018F00080E0089581E008951092350F81E0809393
:10190000340F10920F0F61E084E10E94700B61E0D0
:1019100085E10E94700BE9EBF0E080818E7F80838F
:1019200080818D7F808388E48093B80085E48093F4
:10193000BC000895CF93DF9391E09093AF0B882381
:10194000B9F0C091B800D091BA008091BC008A7BF8
:101950008093BC0060E084E10E94700B60E085E150
:101960000E94700B0E947C0CD093BA00C093B80008
:10197000DF91CF9108958F929F92AF92BF92CF92B5
:10198000DF92EF92FF920F931F93CF93DF93D0914B
:101990005E0FD13208F0D7C0182FC0915D0F0E94A2
:1019A000A7086B017C018091350F81116BC082E02B
:1019B0008093350F1093340F8FEF8093330F109275
:1019C000320FD093310FADE3BFE0E1E1FFE080E003
:1019D000D81391C01092100F8091100FCC0FC82B0C
:1019E000C093100F80910F0F813009F088C01092C2
:1019F0000F0F0E94A7086B017C018091100F80934C
:101A0000BB008091370F9091380FA091390FB091A2
:101A10003A0F892B8A2B8B2BA1F00E94A7080091EB
:101A2000370F1091380F2091390F30913A0F6C1900
:101A30007D098E099F09061717072807390708F43B
:101A400042C08091BC0083FDD8CF85EC8093BC0060
:101A50000E94A7086B017C018091350F823009F448
:101A600050C08091330F8F3F09F46FC08091330FC6
:101A7000803209F46CC08091330F803309F469C05F
:101A800084E026C08091370F9091380FA091390FD4
:101A9000B0913A0F892B8A2B8B2B09F484CF0E94AB
:101AA000A7088090370F9090380FA090390FB09012
:101AB0003A0F6C197D098E099F0986169706A806AC
:101AC000B90608F070CF8091360F0E949A0C85E01D
:101AD00010923C0F10925E0F10923B0FDF91CF914E
:101AE0001F910F91FF90EF90DF90CF90BF90AF903C
:101AF0009F908F9008959D9191938F5F69CF85EE10
:101B0000A5CF8091370F9091380FA091390FB091E8
:101B10003A0F892B8A2B8B2B09F49ECF0E94A708A2
:101B20000091370F1091380F2091390F30913A0FF3
:101B30006C197D098E099F090617170728073907B1
:101B400008F08ACFC0CF81E0C3CF80E0C1CF82E070
:101B5000BFCF83E0BDCF81E00C94BB0C0895089506
:101B60000895E0910E0F80910D0FE81730F4F0E02A
:101B7000E351F14F808190E008958FEF9FEF08953A
:101B800080910D0F90910E0F891B990B0895CF92A4
:101B9000DF92EF92FF920F931F93CF93DF937C011D
:101BA000CB018A0120913B0F222389F0EB016B01CD
:101BB000C40ED51ECC15DD0569F06991D701ED91F4
:101BC000FC910190F081E02DC7011995F3CF642FAE
:101BD0000E94550CC801DF91CF911F910F91FF908A
:101BE000EF90DF90CF900895CF93DF931F92CDB702
:101BF000DEB7698320913B0F2223F9F020915E0F1D
:101C0000203258F021E030E0FC013383228390E061
:101C100080E00F90DF91CF91089580913C0FE82FE5
:101C2000F0E0E35CF04F998190838F5F80933C0FED
:101C300080935E0F81E090E0ECCF61E0CE010196F1
:101C40000E94550CF7CF682F87E391E10C94F40DB7
:101C500090E080E008950895FC01E61BF70B6817FB
:101C600079071CF0FB01E81BF90B9C01241B350BC9
:101C7000481759071CF09A01281B390BDA01A61BDB
:101C8000B70B641775071CF0DB01A41BB50B2E17EF
:101C90003F075CF0AE17BF072CF0860F971F959596
:101CA00087950895E217F3072CF0840F951FA2176C
:101CB000B307ACF7640F751FCB01F1CF0CB405FC73
:101CC0000DC09EBD00000DB407FEFDCF9EB58EBDBC
:101CD00000000DB407FEFDCF8EB508958EBD000047
:101CE0000DB407FEFDCF8EB59EBD00000DB407FEFE
:101CF000FDCF9EB5089560E08BE10E94700B60E01F
:101D00008DE10E94700B80E991E09093B10E809379
:101D1000B00E1092AE0E1092AD0E08954F925F92DB
:101D20006F927F928F929F92AF92BF92CF92DF92EB
:101D3000EF92FF920F931F93CF93DF9300D000D0C9
:101D4000CDB7DEB79E838D832A013B01FC01008560
:101D500011856801F12CE12C8285882309F455C096
:101D600080809180A280B380A70198012819390949
:101D70004A095B0964817581868197810E94AF570A
:101D8000A70198010E94545729833A834B835C83AF
:101D9000A5019401C301B2010E94AF5789809A80C6
:101DA000AB80BC80860E971EA81EB91EED81FE81F9
:101DB00084829582A682B78216950795ED81FE8171
:101DC0006481758186819781600F711F811D911DCE
:101DD000A70196010E945457CA01B90126960FB671
:101DE000F894DEBF0FBECDBFDF91CF911F910F9151
:101DF000FF90EF90DF90CF90BF90AF909F908F902B
:101E00007F906F905F904F900895AB019201C70152
:101E1000B8010E94AF57ED81FE816483758386838C
:101E2000978381E08287C8CF8FE60E94E60883E02F
:101E300090E00E94230E81E090E00E94230E0E9419
:101E4000AB0D61E084E00C94700B8F929F92AF9287
:101E5000BF92CF92DF92EF92FF9281116DC080917D
:101E6000EC0E81110BC090E080E0FF90EF90DF90CE
:101E7000CF90BF90AF909F908F9008958FE00E9479
:101E8000DA0B181619067CF76091CD0E7091CE0E04
:101E900090E080E0625E7F4F8F4F9F4F9B01AC01CF
:101EA0000E94AF5729E233E040E050E00E945457CF
:101EB0002436310541055105ECF56091C30E709152
:101EC000C40E90E080E0625E7F4F8F4F9F4F9B017A
:101ED000AC010E94AF576B017C012EE334E040E07F
:101EE00050E00E9454572B3431054105510514F53B
:101EF000C701B60120EB34E040E050E00E945457A7
:101F00002233310541055105ACF4C701B6012CED72
:101F100035E040E050E00E94545729313105410539
:101F2000510544F4C701B60124EC39E040E050E02B
:101F30000E945457C90199CF8130F9F48091EC0E79
:101F4000882309F490CF8FE00E94DA0B1816190647
:101F50000CF089CF6091C70E7091C80E90E080E0C0
:101F600064577F4F8F4F9F4F9B01AC010E94AF572B
:101F70002CED39E240E050E0DBCF8230D1F48FE04D
:101F80000E94DA0B181619060CF06DCF6091C30E83
:101F90007091C40E90E080E0625E7F4F8F4F9F4F44
:101FA0009B01AC010E94AF572CE63AE240E050E0C2
:101FB000BFCF8091EC0E882309F455CFE091CD0E70
:101FC000F091CE0EE436F10508F44DCF4091C70EE6
:101FD0005091C80E8AE090E04530510508F445CF95
:101FE0009F01A4E6B0E00E94A0574B015C019A015A
:101FF000AEE1B0E00E94A057860E971EA81EB91E43
:1020000080EF880E8AE0981EA11CB11C9F01AAE0F7
:10201000B0E00E94A0576B017C01DA012DEF3FEF89
:102020004FEF5FEF0E947357A7019601260F371FEE
:10203000481F591F2851314041095109C501B401B8
:102040000E945457BA01A9018FE491E10E948E0EBB
:102050009B01AC01243631054105510524F023E6EE
:1020600030E040E050E02A303105410551050CF0E8
:1020700061CF2AE030E040E050E05CCF9C0181700D
:10208000992720FF02C082E390E021FF02C08C5913
:102090009F4F22FF02C088539F4F23FF02C08057EB
:1020A0009E4F24FF02C0805E9C4F25FF02C0805CD3
:1020B000994F08959C018170992720FF02C08BE001
:1020C00090E021FD489622FDC29623FF02C082596E
:1020D0009F4F24FF02C085519F4F25FF02C08C50A7
:1020E0009E4F26FF02C0845B9B4F08958091A70BF3
:1020F000811161C01092D00E1092CF0E2AE936EDF8
:102100003093640E2093630E88E292E49093170C50
:102110008093160C3093190C2093180C80EE97E0E6
:1021200090939F0E80939E0E30935C0B20935B0BDD
:1021300060EE7FEF70931B0C60931A0C20E038EF79
:1021400030935A0B2093590B1092600B10925F0B37
:102150004FEF5FEF50935E0B40935D0B1092A90E13
:102160001092A80E9093A70E8093A60E3093A20E05
:102170002093A10E9093600E80935F0E4FE150E08C
:1021800050935E0E40935D0E9093D70E8093D60EC3
:102190007093D30E6093D20E3093E00E2093DF0E37
:1021A00088E49AE49093DE0E8093DD0E5093DC0E6B
:1021B0004093DB0E0895813009F063C01092D00E79
:1021C0001092CF0E80E098EF9093640E8093630E90
:1021D00040E058E55093170C4093160C9093190C5F
:1021E0008093180C20E832E030939F0E20939E0ECF
:1021F00050935C0B40935B0B41E256EC50931B0CED
:1022000040931A0C10925A0B1092590B1092600BBB
:1022100010925F0B67E07CEF70935E0B60935D0B39
:102220001092A90E1092A80E60EE77E07093A70EA0
:102230006093A60E9093A20E8093A10E3093600E31
:1022400020935F0E6CE470E070935E0E60935D0E01
:102250003093D70E2093D60E5093D30E4093D20EC8
:102260009093E00E8093DF0E88E49AE49093DE0E64
:102270008093DD0E80EE9FEF9093DC0E8093DB0E5B
:1022800008958230E9F71092D00E1092CF0E2BE411
:102290003BE63093640E2093630E88E49AE49093B7
:1022A000170C8093160C3093190C2093180C20E80F
:1022B00032E030939F0E20939E0E90935C0B8093A0
:1022C0005B0B61E276EC70931B0C60931A0C10921E
:1022D0005A0B1092590B1092600B10925F0B909357
:1022E0005E0B80935D0B1092A90E1092A80E40EE2B
:1022F00057E05093A70E4093A60E40E058EF50933E
:10230000A20E4093A10E3093600E20935F0EECE47A
:10231000F0E0F0935E0EE0935D0E3093D70E2093C5
:10232000D60E7093D30E6093D20E5093E00E40936E
:10233000DF0E9CCF813041F028F08230D1F0833025
:1023400049F108950C947B0E61E08BE10E94700BC3
:1023500060E08DE10E94700B84EF91E09093B10EEC
:102360008093B00E8CE791E09093AE0E8093AD0E0B
:10237000089560E08BE10E94700B61E08DE10E94A6
:10238000700B86E292E09093B10E8093B00E84EAD7
:1023900091E0EACF61E08BE10E94700B61E08DE19A
:1023A0000E94700B84EC99E09093B10E8093B00E74
:1023B00080EE91E0D9CFF8948BE00E94DA0B78940C
:1023C00088389105FCF08F3B9105F4F0863F91052C
:1023D000ECF08C3221E09207DCF0833621E09207AA
:1023E000CCF08A3921E09207BCF0813D21E09207D0
:1023F000ACF0883022E092079CF08E33924094F04B
:1024000081E008958AE0089589E0089588E00895BC
:1024100087E0089586E0089585E0089584E00895B2
:1024200083E0089582E00895F8948BE00E94DA0B2F
:102430009C017894863791054CF183589109853435
:10244000910530F1825591098534910518F1835534
:1024500091098534910500F18555910985349105DF
:10246000E8F08255910985349105D0F083559109A2
:1024700085349105B8F08555910985349105A0F012
:1024800081E02C3033408CF080E008958AE008959C
:1024900089E0089587E0089586E0089585E008952D
:1024A00084E0089583E0089582E00895F8948BE035
:1024B0000E94DA0B78948236910564F19C012556CE
:1024C00031092B33310540F1205431092C333105CA
:1024D00028F1215431092733310510F12C533109EA
:1024E00027333105F8F02C5331092C333105E0F056
:1024F000215431092C333105C8F0215431092C31D4
:102500003105B0F02152310981E02C35310588F0D8
:1025100080E008958AE0089589E0089587E00895AD
:1025200086E0089585E0089584E0089583E00895A5
:1025300082E00895A895089508958EBD00000DB419
:1025400007FEFDCF8EB50895CF93C82F662399F06F
:10255000409AF89480915F0F81110FC042988CE5EA
:1025600091E00E94E3088C2F0E949D12429A289AC3
:102570007894CF9108954098ECCF2898F0CFCF93DE
:10258000C62F60E00E94A41261E08C2FCF910C94C2
:10259000A4121F93CF93DF93182FEB01692F82E0D2
:1025A0000E94BF12612F83E00E94BF126D2F86E050
:1025B0000E94BF126C2F87E0DF91CF911F910C9486
:1025C000BF12EAE0F1E0808180688083EBE0F1E017
:1025D000808180688083739860E08AEE0E94BF12D9
:1025E00060E28BEE0E94BF126CE08CEE0E94BF1284
:1025F00064EC8DEE0E94BF1268E388EE0E94BF1269
:1026000060E189EE0E94BF1261E081EF0E94BF127B
:1026100060E182EF0E94BF1261E080E40E94BF127D
:1026200060E081E40E94BF1260E082E40E94BF1279
:1026300060E183E40E94BF126EE084E40E94BF1256
:1026400064E285E40E94BF1264E086E40E94BF1247
:1026500060E587E40E94BF1262E088E40E94BF1236
:1026600063E189E40E94BF1269E18AE40E94BF121B
:1026700069E18BE40E94BF1266E18CE40E94BF1204
:102680006BE180E50E94BF1261E381E50E94BF1209
:102690006FE282E50E94BF126FE383E50E94BF12E2
:1026A0006FE384E50E94BF126EE385E50E94BF12CE
:1026B0006FE286E50E94BF126BE787E50E94BF12BA
:1026C00069E088E50E94BF1266E089E50E94BF12BA
:1026D00066E08AE50E94BF126CE08BE50E94BF12A3
:1026E0006DE18CE50E94BF126CEC8DE50E94BF127B
:1026F0006BE18BE10E94BF1261E08AE10E94BF1290
:102700006FE284E20E94BF1267E585E20E94BF1279
:1027100068E883E20E94BF1264E388E10E94BF126E
:1027200061E089E10E94BF1260E081E00E94BF1277
:1027300068E88FE10E94BF1265E070E080E090E001
:102740000E94F70B60E88FE10E94BF1265E070E025
:1027500080E090E00E94F70B60E98FE10E94BF12D9
:1027600065E070E080E090E00E94F70B60ED8FE1A3
:102770000E94BF1265E070E080E090E00E94F70BDD
:1027800065E087E10E94BF1260E086E30E94BF120D
:1027900068E388E20E94BF1268E270E080E090E0A7
:1027A0000E94F70B6FE388E20E94BF1268E186E1A6
:1027B0000E94BF12739860E082E00E94BF1260E046
:1027C00083E00E94BF1260E084E00E94BF126FEEBF
:1027D00085E00E94BF1260E086E00E94BF1260E0C8
:1027E00087E00E94BF1261E088E00E94BF126FE3A1
:1027F00089E00E94BF1269E170E080E090E00E94F1
:10280000F70B739A0895CF93DF93813421E09207F9
:1028100020F5613F710508F5EA019B01BC0180EFDD
:1028200090E0821B930B0E94C91260E082E20E943A
:10283000A412409AF89480915F0F811111C04298C0
:102840008CE591E00E94E3088D2F0E949D128C2F51
:102850000E949D12429A289A7894DF91CF91089510
:102860002898EECF8F929F92AF92BF92CF92DF9235
:10287000EF92FF920F931F93CF93DF935C01EB01D5
:102880007901E60EF71E6A01C80ED91ECE15DF05C6
:1028900079F045018C149D0449F0A801BE01C401E2
:1028A0000E9403148FEF881A980AF4CF2196EECF76
:1028B000DF91CF911F910F91FF90EF90DF90CF901C
:1028C000BF90AF909F908F9008952F923F924F921C
:1028D0005F926F927F928F929F92AF92BF92CF92B0
:1028E000DF92EF92FF920F931F93CF93DF9300D06D
:1028F00000D000D01F92CDB7DEB76B01342E252E4D
:102900007901280126E02E9DA0012F9D500D112454
:102910005C834B839A838983E981FA818191FA836D
:10292000E983882309F45EC090EE980F903608F092
:102930008FE38052990B23E0880F991F2A95E1F7C6
:102940004601B12CA12C9C012054324F3E832D8393
:10295000ED81FE81EA0DFB1DE49139862A86712CFA
:10296000612C4E2F50E058874F838F819885062C1D
:1029700002C0959587950A94E2F780FF11C050E454
:10298000851651E0950660F489859A85803F91050A
:1029900038F482019701A701BC01C4010E943214DE
:1029A0009FEF691A790AE985FA85EE0DFF1DFA870E
:1029B000E987F8E06F167104C1F62FEFA21AB20A88
:1029C0008E0C9F1C38E0A316B10409F0C1CF4FE371
:1029D000C41641E0D40608F09FCF8B819C81C80EBD
:1029E000D91E9ACF2A960FB6F894DEBF0FBECDBF80
:1029F000DF91CF911F910F91FF90EF90DF90CF90DB
:102A0000BF90AF909F908F907F906F905F904F900E
:102A10003F902F900895FF920F931F93CF93DF93D2
:102A2000F82EEB018091E70E81112BC081E080939D
:102A30005F0FE0915D02F0E0E25DFD4F808181304B
:102A400031F5C0915F0ED091600E0091CF0E1091C4
:102A5000D00E25E130E040E550E065E170E084EE25
:102A600090E00E943214F11019C008E41AE423E047
:102A700030E045E150E064EE70E08EEB94E00E94BF
:102A80006514DF91CF911F910F91FF9008958230CF
:102A9000E1F6C0915D0ED0915E0ED7CF81E0F812C5
:102AA0000AC08E0123E030E045E150E064EE70E0C2
:102AB00082EC94E0E4CF82E0F8120AC08E0123E0B9
:102AC00030E045E150E064EE70E086EC94E0D7CF72
:102AD00083E0F8120AC08E0123E030E045E150E0C7
:102AE00064EE70E08AEC94E0CACF84E0F8120AC089
:102AF0008E0123E030E045E150E064EE70E08EECC2
:102B000094E0BDCF85E0F8120AC08E0123E030E0EA
:102B100045E150E064EE70E082ED94E0B0CF86E0F5
:102B2000F8120AC08E0123E030E045E150E064EE87
:102B300070E086ED94E0A3CF87E0F8120AC08E0122
:102B400023E030E045E150E064EE70E08AED94E08F
:102B500096CF88E0F8120AC08E0123E030E045E10C
:102B600050E064EE70E083EE94E089CF89E0F812E3
:102B70000AC08E0123E030E045E150E064EE70E0F1
:102B80008EED94E07CCF8AE0F8127BCF8E0123E0BB
:102B900030E045E150E064EE70E082EE94E06FCF0B
:102BA000FF920F931F93CF93DF938091E70E8111D4
:102BB0007EC081E080935F0FF090E50EF11005C0BC
:102BC0008091750E882309F44AC081E08093750EC8
:102BD00008E212E420E130E044E250E06AE070E014
:102BE0008EE890E00E943214C091CF0ED091D00EAA
:102BF000FF2059F08E0123E030E045E150E064E22F
:102C000070E087EE94E00E9465148E0123E030E0CE
:102C100045E150E064E270E08AEE94E00E946514C1
:102C200068EC70E080E090E00E94F70B0091DF0E0E
:102C30001091E00E23E030E045E150E064E270E006
:102C40008AEE94E00E94651468EC70E080E090E009
:102C5000DF91CF911F910F91FF900C94F70B809112
:102C6000E80E81112AC00091CF0E1091D00E25E1FF
:102C700030E04AE550E065E170E08AE190E00E94D2
:102C8000321408E212E423E030E045E150E064E26F
:102C900070E08FEE94E00E94651420E130E044E2A1
:102CA00050E06AE070E08EE890E00E943214DF911C
:102CB000CF911F910F91FF9008958130C1F700913E
:102CC000CF0E1091D00E25E130E04AE550E065E1ED
:102CD00070E08AE190E00E94321400EE1FEF23E0E2
:102CE00030E045E150E064E270E087EE94E00E945D
:102CF00065140091D60E1091D70ECFCF0F931F936E
:102D00002091E70E21110EC08C0181E080935F0FAE
:102D100020E130E044E250E06AE070E08EE890E0CC
:102D20000E9432141F910F910895FF920F931F93E9
:102D3000CF93DF93FF24F3948FE00E94DA0B029786
:102D40000CF450C08091E70E811119C08091DF0E04
:102D50009091E00E0E947E1668EC70E080E090E0BA
:102D60000E94F70B8091CF0E9091D00E0E947E169C
:102D700060E971E080E090E00E94F70BDDCF8230E7
:102D8000D9F6F0925F0FC091CF0ED091D00E8E0188
:102D900029E130E043E750E062ED70E089E690E041
:102DA0000E9432140091DF0E1091E00E22E030E01C
:102DB00045ED50E062E870E083EF94E00E94651416
:102DC00068EC70E080E090E00E94F70B8E0122E05A
:102DD00030E045ED50E062E870E083EF94E00E945F
:102DE0006514C6CFDF91CF911F910F91FF90089589
:102DF000CF92DF92EF92FF920F931F93CF93DF93C7
:102E00008034E1E09E07C8F4603F7105B0F47901B9
:102E10006C01EB018B01040F151FC801003F110568
:102E200010F08FEE90E0C817D90738F4A701BE0163
:102E3000C6010E9403142196F0CFDF91CF911F911C
:102E40000F91FF90EF90DF90CF900895CF92DF9297
:102E5000EF92FF920F931F93CF93DF938034E1E0C3
:102E60009E07D8F4603F7105C0F479018B01EC0135
:102E70006C01C40ED51EC60120E4C21621E0D206A4
:102E800010F08FE391E0C817D90738F4A701B80113
:102E9000CE010E9403142196EECFDF91CF911F91B6
:102EA0000F91FF90EF90DF90CF9008952F923F9277
:102EB0004F925F926F927F928F929F92AF92BF924A
:102EC000CF92DF92EF92FF920F931F93CF93DF93F6
:102ED00000D01F92CDB7DEB76C017C836B837A0183
:102EE00029010091160C1091170C9801A2010E9463
:102EF000F816520182E0A81AB1082B803C809FEF9F
:102F0000291A390A46018FEF881A980A9801A501F3
:102F1000B101C4010E94F8166090180C7090190C51
:102F2000C6018E0D9F1D9A8389839301A2016B8137
:102F30007C810E94F8169301A501B10189819A81D3
:102F400001970E94F8169801A7016B817C81C60148
:102F50000E942617570192E0A91AB1089801A5010D
:102F6000B101C4010E9426170B811C81040D151D9F
:102F70009301A701B801C6010E942617B80161504C
:102F800071099301A501C4010E9426170091CF0E7B
:102F90001091D00E920123503109A70143505109DD
:102FA0006B817C816E5F7F4FC60102960E94321456
:102FB0000F900F900F900F90DF91CF911F910F9175
:102FC000FF90EF90DF90CF90BF90AF909F908F9049
:102FD0007F906F905F904F903F902F9008952F9229
:102FE0003F924F925F926F927F928F929F92AF9299
:102FF000BF92CF92DF92EF92FF920F931F93CF93E6
:10300000DF9300D01F92CDB7DEB76C017C836B835A
:103010007A0129010091180C1091190C9801A20154
:103020000E94F816520182E0A81AB1082B803C8059
:103030009FEF291A390A46018FEF881A980A9801DA
:10304000A501B101C4010E94F8166090160C7090A1
:10305000170CC6018E0D9F1D9A8389839301A201CF
:103060006B817C810E94F8169301A501B1018981D1
:103070009A8101970E94F8169801A7016B817C81C3
:10308000C6010E942617570192E0A91AB1089801BB
:10309000A501B101C4010E9426170B811C81040DFA
:1030A000151D9301A701B801C6010E942617B8019A
:1030B000615071099301A501C4010E942617009176
:1030C000CF0E1091D00E920124503109A701445027
:1030D00051096B817C816E5F7F4FC60102960E9411
:1030E00032140F900F900F900F90DF91CF911F919E
:1030F0000F91FF90EF90DF90CF90BF90AF909F9097
:103100008F907F906F905F904F903F902F90089599
:10311000EF92FF920F931F93CF93DF9381E0809301
:103120005F0F2EE130E04CE350E06DEC70E082E8A0
:1031300090E00E94EF17C091630ED091640E8E0153
:1031400022E030E045ED50E067E870E089EF94E080
:103150000E9465142CE230E048E250E068E070E044
:103160008EE090E00E94EF1724E030E042E150E072
:1031700068E170E08EEF94E00E9465142CE230E08C
:1031800048E250E068E070E08AE091E00E94EF17CA
:1031900024E030E042E150E062E171E080E095E05F
:1031A0000E9465142CE230E048EC50E068E070E0EA
:1031B0008CE390E00E9456172CE230E048EC50E09F
:1031C00064E470E08CE390E00E945617E090660E95
:1031D00000919E0E10919F0EEE0CFF08F701EC5728
:1031E000FB4F22E030E044E150E061E470E0808198
:1031F00091810E946514F701E85EFD4F8E0122E087
:1032000030E040E550E061E470E0808191810E940F
:1032100065142EE130E040E550E06DE770E088E7AE
:1032200090E00E94EF1722E030E044E850E06CE7C5
:1032300070E082E095E00E9465141092670E27E32B
:1032400030E046E450E064EB70E085E090E00E94FE
:10325000EF170FEF1FEF22E030E04EEB50E064E19C
:1032600070E08CEC98E00E94651422E030E045EDBF
:1032700050E06FE070E089E095E00E9465148E01F7
:1032800022E030E04EEB50E06EEC70E08EE095E036
:103290000E94651422E030E04EEB50E06EEF70E0EB
:1032A00081E59BE00E94651422E030E045ED50E0AE
:1032B0006EEC70E083E195E00E94651422E030E05E
:1032C00045ED50E064EF70E087E195E00E94651401
:1032D000DF91CF911F910F91FF90EF9008952F9262
:1032E0003F924F925F926F927F928F929F92AF9296
:1032F000BF92CF92DF92EF92FF920F931F93CF93E3
:10330000DF93CDB7DEB72C970FB6F894DEBF0FBEB4
:10331000CDBF7C016B01422E1E830D83822F8695CB
:10332000282E312C8FE391E09C01221933093C8334
:103330002B8349835A83642C712CE981FA81819112
:10334000FA83E983882309F45CC02B813C812E1524
:103350003F0508F473018052990BAC0124E0440F3F
:10336000551F2A95E1F76CE0689F9001699F300D29
:103370001124DC86CB86470110E000E0CA01845AA4
:103380009C4F98878F83F901E45BF64FFA87E987B2
:103390003CE0E985FA85431629F060E1461205C054
:1033A000EF81F885E00FF11F5490AB84BC8488E076
:1033B000A80EB11C57FE07C04D815E816B857C85D0
:1033C000C4010E940314550CEB85FC853196FC87E3
:1033D000EB87CF018C199D096816790661F4FFEF20
:1033E0008F1A9F0ADC86CB860F5F1F4F041580F271
:1033F000E20CF31CA2CF2B853C852A153B05D1F6A8
:10340000F3CF2C960FB6F894DEBF0FBECDBFDF9181
:10341000CF911F910F91FF90EF90DF90CF90BF90D1
:10342000AF909F908F907F906F905F904F903F9064
:103430002F9008954F925F926F927F928F929F92FA
:10344000AF92BF92CF92DF92EF92FF920F931F93B2
:10345000CF93DF933C012C0181E0481A51086201AF
:1034600086E0CC0CDD1C8A95E1F7C0915F0BD09112
:10347000600B10925F0FE090160CF090170C460155
:103480008AE0880E911C97014EE150E06BE070E0FD
:10349000C4010E94F81656018BE0A80EB11C9701DA
:1034A0004CE150E06CE070E0C5010E94F81600911C
:1034B000180C1091190C98014EE150E06BE070E08F
:1034C000C601C6960E94F81698014CE150E06CE0E7
:1034D00070E0C601C5960E94F81697014CE250E0D4
:1034E0006BE070E0C4010E94261797014AE250E0A9
:1034F0006CE070E0C5010E94261798014CE250E094
:1035000069E270E0C4010E94261798014AE250E087
:1035100068E270E0C5010E94261700915D0B1091D2
:103520005E0B22E230E04DE251E06AE070E089E0BB
:1035300090E00E94321483E04816510408F0A5C0C0
:1035400003E110E09E0142E150E069E170E0C80152
:103550000E94F816085C1F4F033681E0180791F7A8
:103560000FE210E09E014BE050E060E270E0C80125
:103570000E94F816085C1F4F073481E0180791F786
:10358000E0905B0BF0905C0B870122E030E04DE6B1
:1035900050E081E06816710409F022C16DE470E02A
:1035A0008CE195E00E94651422E030E04DE650E0A9
:1035B0006DE870E080E295E00E94651422E030E062
:1035C0004DE650E06DEC70E084E295E00E946514F9
:1035D00022E030E04DE650E06DE071E088E295E0F9
:1035E0000E94651400919E0E10919F0E22E030E023
:1035F0004DE650E06DE070E08CE295E00E946514CD
:103600008E0120E148E355E069E070E080E190E060
:103610000E946F190091590B10915A0B2CE040E356
:1036200055E06BE070E08EE190E00E946F198E0132
:1036300020E146E355E069E070E080E490E00E941C
:103640006F1920E14AE355E069E070E088E790E017
:103650000E946F1920E14EE355E069E070E080EBD5
:1036600090E00E946F1920E142E455E069E070E0CB
:1036700088EE90E00E946F1920E146E455E069E091
:1036800070E08EE191E00E946F19C30104970297E8
:1036900008F095C0E0905B0BF0905C0B870122E096
:1036A00030E04DE650E06DE070E084E068167104B3
:1036B00009F081C18CE295E00E94651422E030E0BF
:1036C0004DE650E06DE470E08CE195E00E946514F9
:1036D00022E030E04DE650E06DE870E080E295E0F9
:1036E0000E94651422E030E04DE650E06DE071E0AC
:1036F00088E295E00E94651400919E0E10919F0E45
:1037000022E030E04DE650E06DEC70E084E295E0C0
:103710000E94651403E110E09E014FE050E06BE170
:1037200070E0C8010E94F816045E1F4F073481E064
:10373000180791F78E0120E148E355E069E070E059
:1037400080E190E00E946F190091590B10915A0B83
:103750002CE046E555E06BE070E08EE190E00E94E1
:103760006F198E0120E14CE555E069E070E083E4DB
:1037700090E00E946F1920E14FE555E069E070E0AC
:103780008BE790E00E946F1920E142E655E069E086
:1037900070E083EB90E00E946F1920E145E655E070
:1037A00069E070E08BEE90E00E946F1920E148E63E
:1037B00055E069E070E083E291E00E946F19DF91CB
:1037C000CF911F910F91FF90EF90DF90CF90BF901E
:1037D000AF909F908F907F906F905F904F900895E3
:1037E0006DE070E082E06816710409F074C08CE24C
:1037F00095E00E94651422E030E04DE650E06DE86F
:1038000070E080E295E00E94651422E030E04DE631
:1038100050E06DEC70E084E295E00E94651422E0D7
:1038200030E04DE650E06DE071E088E295E00E9406
:10383000651400919E0E10919F0E22E030E04DE63F
:1038400050E06DE470E08CE195E00E9465148E011B
:1038500020E148E355E069E070E080E190E00E94FB
:103860006F190091590B10915A0B2CE040E355E071
:103870006BE070E08EE190E00E946F198E0120E114
:1038800043EB57E069E070E083E490E00E946F1939
:1038900020E14AE455E069E070E08BE790E00E94A7
:1038A0006F1920E14DE455E069E070E083EB90E0B2
:1038B0000E946F1920E140E555E069E070E08BEE71
:1038C00090E00E946F1920E143E555E069E070E067
:1038D00083E291E0D8CE8CE295E00E94651422E06C
:1038E00030E04DE650E06DE470E08CE195E00E9440
:1038F000651422E030E04DE650E06DEC70E084E2CB
:1039000095E00E94651422E030E04DE650E06DE065
:1039100071E088E295E00E94651400919E0E10917E
:103920009F0E22E030E04DE650E06DE870E080E26E
:1039300095E00E9465148E0120E148E355E069E0BE
:1039400070E080E190E00E946F190091590B109196
:103950005A0B2CE040E355E06BE070E08EE190E024
:103960000E946F198E0120E143E756E069E070E0A4
:1039700088E490E00E946F1920E140E655E069E09C
:1039800070E080E890E00E946F1920E143E655E086
:1039900069E070E088EB90E00E946F1920E146E654
:1039A00055E069E070E080EF90E00E946F1920E13F
:1039B00043EB57E08BCF8CE295E00E94651422E048
:1039C00030E04DE650E06DE470E08CE195E00E945F
:1039D000651422E030E04DE650E06DE870E080E2F2
:1039E00095E00E94651422E030E04DE650E06DEC79
:1039F00070E084E295E00E94651400919E0E1091A3
:103A00009F0E22E030E04DE650E06DE071E088E28C
:103A100095E00E94651403E110E09E014FE050E044
:103A20006BE170E0C8010E94F816025F1F4F093376
:103A300081E0180791F78E0120E148E355E069E045
:103A400070E080E190E00E946F190091590B109195
:103A50005A0B2CE04BE655E06BE070E088E290E01A
:103A60000E946F198E0120E141E755E069E070E0A6
:103A700086E590E00E946F1920E143EB57E069E092
:103A800070E087E990E00E946F1920E140E755E07F
:103A900069E070E08DED90E00E946F1920E14AE44A
:103AA00055E087CEEF92FF920F931F93CF93DF9352
:103AB00010925F0F20E430E040E351E068E070E0F6
:103AC00087E090E00E9456172EE030E04DE150E094
:103AD00060E570E082E190E00E9456172EE030E051
:103AE0004DE150E060E570E082E590E00E945617FD
:103AF0002EE030E04DE150E060E570E082E990E0DA
:103B00000E9456172EE030E04DE150E060E570E095
:103B100082ED90E00E9456172EE030E04DE150E03B
:103B200060E570E082E191E00E9456172EE130E0FE
:103B30004CE250E064E670E08AE090E00E94EF170B
:103B4000C091630ED091640E8E0122E030E04DE60C
:103B500050E06DE070E08CE295E00E9465142EE18B
:103B600030E04CE250E064E670E08AE490E00E94CD
:103B7000EF1722E030E04DE650E06DE470E08CE1BC
:103B800095E00E9465142EE130E04CE250E064E6DE
:103B900070E08AE890E00E94EF1722E030E04DE606
:103BA00050E06DE870E080E295E00E9465142EE13F
:103BB00030E04CE250E064E670E08AEC90E00E9475
:103BC000EF1722E030E04DE650E06DEC70E084E26B
:103BD00095E00E9465142EE130E04CE250E064E68E
:103BE00070E08AE091E00E94EF1722E030E04DE6BD
:103BF00050E06DE071E088E295E00E9465148091EC
:103C0000AA0E90E00E941A1A22E030E04BE950E040
:103C10006AE070E083E795E00E9465142EE130E0F1
:103C200040E550E062E970E08FE390E00E945617B3
:103C3000E0909E0EF0909F0E870122E030E049E96F
:103C400050E066E770E08CE798E00E9465148E0112
:103C500022E030E04BE950E065EA70E088E795E06B
:103C60000E9465142EE130E040E550E062E970E02A
:103C700086EE90E00E945617870122E030E049E985
:103C800050E068E171E08DE795E00E9465148E01D7
:103C900022E030E04DEC50E06AE070E08FE795E024
:103CA0000E9465142EE130E040E550E064EC70E0E5
:103CB0008FE390E00E94561722E030E04DEC50E098
:103CC00065EA70E084E895E00E9465142EE130E03A
:103CD00040E550E064EC70E086EE90E0DF91CF913B
:103CE0001F910F91FF90EF900C945617CF92DF9297
:103CF000EF92FF92CF93DF93EC0170E060E090E0F1
:103D000080E00E94C91260E082E20E94A412409A00
:103D100080915F0F81111CC04298C12C8CE2D82E7B
:103D2000EE24E394F12C8D2F0E949D128C2F0E9483
:103D30009D1281E0C81AD108E108F108A1F7429A62
:103D4000289ADF91CF91FF90EF90DF90CF90089568
:103D50002898E3CFCF93DF93EC01EAE0F1E0808194
:103D600080688083EBE0F1E0808180688083389A0E
:103D7000409A3A9A429A209A289A6B9A739860E0ED
:103D80008AEE0E94BF1260E28BEE0E94BF126CE0CE
:103D90008CEE0E94BF1264EC8DEE0E94BF1268E3AD
:103DA00088EE0E94BF1260E189EE0E94BF1261E0BE
:103DB00081EF0E94BF1260E182EF0E94BF1261E0BA
:103DC00080E40E94BF1260E081E40E94BF1260E0C4
:103DD00082E40E94BF1260E183E40E94BF126EE0A1
:103DE00084E40E94BF1264E285E40E94BF1264E092
:103DF00086E40E94BF1260E587E40E94BF1262E081
:103E000088E40E94BF1263E189E40E94BF1269E165
:103E10008AE40E94BF1269E18BE40E94BF1266E14E
:103E20008CE40E94BF126BE180E50E94BF1261E347
:103E300081E50E94BF126FE282E50E94BF126FE32C
:103E400083E50E94BF126FE384E50E94BF126EE318
:103E500085E50E94BF126FE286E50E94BF126BE704
:103E600087E50E94BF1269E088E50E94BF1266E004
:103E700089E50E94BF1266E08AE50E94BF126CE0ED
:103E80008BE50E94BF126DE18CE50E94BF126CECC5
:103E90008DE50E94BF126BE18BE10E94BF1261E0D1
:103EA0008AE10E94BF126FE284E20E94BF1267E5BE
:103EB00085E20E94BF1268E883E20E94BF1264E3B9
:103EC00088E10E94BF1261E089E10E94BF1260E0B8
:103ED00081E00E94BF1268E88FE10E94BF1265E096
:103EE00070E080E090E00E94F70B60E88FE10E94B4
:103EF000BF1265E070E080E090E00E94F70B60E99F
:103F00008FE10E94BF1265E070E080E090E00E94C7
:103F1000F70B60ED8FE10E94BF1265E070E080E07A
:103F200090E00E94F70B65E087E10E94BF1260E01D
:103F300086E30E94BF1268E388E20E94BF1268E233
:103F400070E080E090E00E94F70B6FE388E20E944F
:103F5000BF1268E186E10E94BF1260E082E00E9429
:103F6000BF1260E083E00E94BF1260E084E00E9424
:103F7000BF126FEE85E00E94BF1260E086E00E94F3
:103F8000BF1260E087E00E94BF1261E088E00E94FB
:103F9000BF126FE389E00E94BF1261E070E080E031
:103FA00090E00E94F70BCE010E94761E739ADF917B
:103FB000CF9108952F923F924F925F926F927F928E
:103FC0008F929F92AF92BF92CF92DF92EF92FF9229
:103FD0000F931F93CF93DF9300D01F92CDB7DEB71F
:103FE000FC012081222309F4A0C09C838B830E94C2
:103FF000CC082B013C01EB81FC8181859285A38556
:10400000B485A3019201281B390B4A0B5B0BDA0123
:10401000C9010397A105B10508F487C081E591E0C6
:104020000E94E30860E0EB81FC8181810E94700BBB
:1040300081EB0E949D1281EC90E00E945E0E8C014B
:1040400063E0169507956A95E1F70150104F81E9F5
:1040500090E00E945E0E73E0969587957A95E1F761
:10406000081B190B0039F1E01F070CF44AC081E965
:1040700090E00E945E0E81ED90E00E945E0E5C0179
:1040800023E0B694A7942A95E1F781E990E00E9495
:104090005E0E6C0133E0D694C7943A95E1F781ED5A
:1040A00090E00E945E0E4C0143E0969487944A95FE
:1040B000E1F781E990E00E945E0E1C0153E0369426
:1040C00027945A95E1F780ED90E00E945E0E7C0106
:1040D00090E080E00E945E0E9A83898361E0EB812C
:1040E000FC8181810E94700B17FF14C0EB81FC8161
:1040F00010861782EB81FC8182818F3FB1F01082A4
:1041000014C0312C212C912C812CD12CC12CB12C00
:10411000A12CD9CF0039F1E01F07F4F4EB81FC8129
:10412000108617820B3411052CF30F900F900F900F
:104130000F90DF91CF911F910F91FF90EF90DF9043
:10414000CF90BF90AF909F908F907F906F905F9037
:104150004F903F902F900895EB81FC81108707834B
:10416000A70183E0569547958A95E1F7B401C5010B
:104170000E942C0E8C0149815A8193E056954795F7
:104180009A95E1F7B101C6010E942C0EEB81FC81EA
:10419000418652866386748614830383968385835F
:1041A000C4CFCF93DF93EC01F8940E94DA1F789488
:1041B00081E02F813885203931400CF480E0DF9197
:1041C000CF910895CF93C82FF89460E089E10E94C1
:1041D000700B8DE591E00E94E3088C2F0E949D12E8
:1041E00061E089E10E94700B7894CF9108958FE689
:1041F0000E94E60883E090E00E94230E81E090E0B8
:104200000E94230E0E94AB0D60E084E00E94700BC0
:104210008091620E0E94E22060E08FE10E94700BAC
:1042200081E08093E50E1092EC0E0E94D015109262
:104230005F0F0895CF93DF93EC019A01AB01E889FA
:10424000F98982E08083211581EE38074105510507
:1042500099F160E079E08DE390E00E947E57BA0129
:10426000A9014150510961097109769567955795E2
:104270004795CA01EC85FD859083EE85FF85808397
:10428000188EEC89FD8986E08083EA89FB8980812C
:1042900080618083EA89FB89808188608083EA89E4
:1042A000FB89808180688083EA89FB8980818F7D9A
:1042B0008083DF91CF910895E889F989108280E1A8
:1042C00090E0D8CFCF93C82F8AE990E10E94990A55
:1042D000C23089F130F4CC23A1F0C13009F1CF9183
:1042E0000895C430F1F190F1C530C9F740E052ECC7
:1042F00061E070E08AE990E10E941A218FED95E07B
:104300000AC040EC52E160E070E08AE990E10E946E
:104310001A218AE895E09093290280932802DFCF42
:1043200040E855E260E070E08AE990E10E941A21DD
:104330008BE995E0F0CF40E05BE460E070E08AE973
:1043400090E10E941A218CEA95E0E5CF40E056E921
:1043500060E070E08AE990E10E941A218DEB95E01F
:10436000DACF40E051EE60E070E08AE990E10E942F
:104370001A218EEC95E0CFCFCF93C82F8DEF9FE021
:104380000E94990AC23089F130F4CC23A1F0C130E7
:1043900009F1CF910895C430F1F190F1C530C9F71A
:1043A00040E052EC61E070E08DEF9FE00E941A2146
:1043B0008FED95E00AC040EC52E160E070E08DEFD7
:1043C0009FE00E941A218AE895E090931902809359
:1043D0001802DFCF40E855E260E070E08DEF9FE02B
:1043E0000E941A218BE995E0F0CF40E05BE460E0A9
:1043F00070E08DEF9FE00E941A218CEA95E0E5CFF6
:1044000040E056E960E070E08DEF9FE00E941A21E5
:104410008DEB95E0DACF40E051EE60E070E08DEF9B
:104420009FE00E941A218EEC95E0CFCFFB01019016
:104430000020E9F73197AF01461B570B0C94160982
:104440008F929F92AF92BF92EF92FF920F931F9322
:10445000CF93DF93CDB7DEB7A1970FB6F894DEBF49
:104460000FBECDBF7C01FA01CB0119A2223008F4A6
:104470002AE08E010F5D1F4F822E912CB12CA12CB2
:10448000BF01A50194010E947E57F901CA016A305B
:104490000CF5605DD8016E938D01232B242B252B09
:1044A00079F790E080E0109721F0BD01C7010E94EC
:1044B0001622A1960FB6F894DEBF0FBECDBFDF91D6
:1044C000CF911F910F91FF90EF90BF90AF909F9071
:1044D0008F900895695CDECF0F931F93CF93DF9386
:1044E000EC010E9416228C0160EF75E0CE010E9463
:1044F0001622800F911FDF91CF911F910F91089588
:10450000813031F463EF75E08AE990E10C946C221C
:10451000823029F463EF75E08DEF9FE0F7CF0895C7
:104520000F931F938091E70E811121C081E080934A
:104530005F0F0091CF0E1091D00E25E130E046E3E1
:1045400050E06EE870E084EF90E00E9432148091B9
:10455000740E81110FC008E212E423E030E04EE84F
:1045600050E064EF70E085EF95E00E9465141F91C4
:104570000F910895E0915D02F0E0E859F14F8081DC
:10458000811114C00091D60E1091D70E23E030E0B7
:104590004EE850E064EF70E089EF95E00E9465140A
:1045A0006DEF75E080E69FE00E946C22E0915D0275
:1045B000F0E0E859F14F80818130C9F60091D20EC8
:1045C0001091D30E23E030E04EE850E064EF70E04D
:1045D00087EE94E00E94651461E076E080E69FE05B
:1045E0001F910F910C946C2282E390E0A0E0B0E068
:1045F0008093640F9093650FA093660FB093670F3D
:104600006DE47CE080E69FE00E946C2265E070E053
:1046100088E49CE00E947F09885B934FFC01108234
:1046200068E47CE08AE990E10C946C22CF93DF93FC
:1046300084E690E0A0E0B0E08093640F9093650F73
:10464000A093660FB093670F6DE47CE080E69FE077
:104650000E946C2267E270E08EE79BE00E947F0977
:10466000EC01FC01E258F44F10826EE77BE08AE92E
:1046700090E10E946C22CE01DF91CF9108958130AC
:1046800039F48AE990E10C9416228DEF9FE0FBCF7C
:104690008230D9F30895CF92DF92EF92FF920F9379
:1046A0001F93CF93DF93D82F0E94A7086B017C0143
:1046B0008091350F811165C0CD2F81E08093350F3A
:1046C0008093340F9FEF9093330F1092320F9D0F12
:1046D0009093310F8093100F8091100F8E6D809307
:1046E000100F80910F0F813009F07FC010920F0FD3
:1046F0000E94A7086B017C018091100F8093BB0082
:104700008091370F9091380FA091390FB0913A0FE7
:10471000892B8A2B8B2BA1F00E94A7080091370FC1
:104720001091380F2091390F30913A0F6C197D0993
:104730008E099F09061717072807390708F442C092
:104740008091BC0083FDD8CF85EC8093BC000E9493
:10475000A7086B017C018091350F813009F447C0B7
:104760008091320F8D1710F4C091320FA1E1BFE09C
:10477000EDEEFEE080E08C1751F19D9191938F5FFB
:10478000FACF8091370F9091380FA091390FB091E7
:104790003A0F892B8A2B8B2B09F48ACF0E94A7080A
:1047A0000091370F1091380F2091390F30913A0F47
:1047B0006C197D098E099F09061717072807390705
:1047C00008F076CF8091360F0E949A0CC0E01092CC
:1047D0000E0FC0930D0F8C2FDF91CF911F910F9172
:1047E000FF90EF90DF90CF90089585EEAECF80914F
:1047F000370F9091380FA091390FB0913A0F892B54
:104800008A2B8B2B09F4A7CF0E94A7080091370FA2
:104810001091380F2091390F30913A0F6C197D09A2
:104820008E099F09061717072807390708F093CF45
:10483000C9CFCF93DF938FE60E94E60883E090E034
:104840000E94230E80E00E94BB0C81E090E00E9459
:104850004B2361E070E080E090E00E94F70B0E9443
:104860000309EC010E94AB0DCE019927DF91CF9196
:1048700008958FE60E94E60884E090E00E94230EEF
:1048800080E00E94BB0C82E090E00E944B2361E03C
:1048900070E080E090E00E94F70B0E9403090E9404
:1048A00003090C94AB0D1F93CF93DF938FE60E9407
:1048B000E60884E190E00E94230E80E00E94BB0C99
:1048C00082E090E00E944B2361E070E080E090E0A5
:1048D0000E94F70B0E940309EC010E940309182FA4
:1048E0000E94AB0D84E0CC0FDD1F8A95E1F7C07FFD
:1048F000DF70812F82958F708C0F9D2F911DDF911E
:10490000CF911F9108951F93CF93DF938FE60E945D
:10491000E6088EE190E00E94230E80E00E94BB0C2E
:1049200082E090E00E944B2361E070E080E090E044
:104930000E94F70B0E940309EC010E940309182F43
:104940000E94AB0D84E0CC0FDD1F8A95E1F7C07F9C
:10495000DF70812F82958F708C0F9D2F911DDF91BD
:10496000CF911F910895AB01813089F4052E000C81
:10497000660B770B2AE08AE990E10C942022052E41
:10498000000C660B770B2AE08DEF9FE0F6CF8230AC
:10499000B1F308950F931F93CF938091E20E882374
:1049A00009F441C00E94140FC1E0C09300021092AC
:1049B000EC0E1092CE0E1092CD0E1092C80E1092E8
:1049C000C70E1092C40E1092C30E8091620E0E9408
:1049D000E22060E08FE10E94700B8091D60E9091F2
:1049E000D70E0E947E160E94392410925F0F00910C
:1049F000D40E1091D50E22E030E04BEC50E066E48E
:104A000070E087E592E00E94651467E572E082E558
:104A100092E00E94075810925102C0935C02CF911D
:104A20001F910F91089560E084E00E94700BBCCF4D
:104A300080915D02882309F457C061E08FE10E94F4
:104A4000700B80910002882361F08091E20E882330
:104A500041F062E370E080E090E00E94F70B10927A
:104A6000000260E087E10E94700B61E070E080E08E
:104A700090E00E94F70B61E087E10E94700B80914B
:104A8000620E805F0E94E2200E94392461E084E08F
:104A90000E94700B81E08093EC0E8093CC0E80938B
:104AA000C60E8093C20E8093BB0E8093B50E1092FB
:104AB000CB0E1092C50E1092C00E1092BA0E10922C
:104AC000B40E8BE00E94470B892B79F08091DF0EAA
:104AD0009091E00E0E947E1667E572E082E592E01A
:104AE0000E9407581092510208958091DB0E909118
:104AF000DC0EF0CFDF92EF92FF920F931F93CF93D4
:104B0000DF9381E080935F0F8091CF0E9091D00E64
:104B10000E94761E0FEF1FEF22E030E045E050E0EC
:104B20006AE070E085E096E00E94651422E030E0E3
:104B30004FE050E06AE070E08FE196E00E9465147B
:104B40002FEF3FEF44EB50E06AE070E086E490E046
:104B50000E94F8162FEF3FEF44EB50E06AE070E060
:104B60008CE990E00E94F8162FEF3FEF44EB50E005
:104B70006AE070E08AEF90E00E94F81680915D0292
:104B80008A3061F480913802813059F48091790B38
:104B9000C0915F0ED091600E813069F0C8E4DAE414
:104BA0000AC08230D9F78091790BC0915D0ED09107
:104BB0005E0E823099F78E0122E030E04EE150E047
:104BC0006AE070E089E396E00E9465148091310C00
:104BD000813009F063C022E030E04EE150E063E153
:104BE00071E08EE396E00E9465148091470C90E09E
:104BF0000E945A109F938F9340E4E42E46E0F42ED7
:104C0000FF92EF921F9256E0D52EDF9289E69BE04D
:104C10009F938F930E9437588E0122E030E04EE13F
:104C200050E069EB70E089E69BE00E94651480919A
:104C30003C0C90E00E943E109F938F93FF92EF9266
:104C40001F92DF9283E69BE09F938F930E943758D9
:104C500022E030E04EE150E06AE570E083E69BE060
:104C60000E9465142DB73EB7205F3F4F0FB6F894F2
:104C70003EBF0FBE2DBF80915D02893061F48091EF
:104C800037028130A1F48091780BC0915F0ED091F2
:104C9000600E8130B1F0C8E4DAE413C022E030E005
:104CA0004EE150E063E171E08FEA96E09CCF823004
:104CB00091F78091780BC0915D0ED0915E0E82309D
:104CC00051F78E0122E030E04EE250E06AE070E001
:104CD00084E496E00E9465148091300C813009F0E4
:104CE00062C022E030E04EE250E063E171E08EE32A
:104CF00096E00E9465148091460C90E00E945A1044
:104D00009F938F9320E4E22E26E0F22EFF92EF9203
:104D10001F9236E0D32EDF9289E69BE09F938F931C
:104D20000E9437588E0122E030E04EE250E069EBFD
:104D300070E089E69BE00E94651480913B0C90E056
:104D40000E943E109F938F93FF92EF921F92DF92EB
:104D500083E69BE09F938F930E94375822E030E0D8
:104D60004EE250E06AE570E083E69BE00E94651445
:104D70008DB79EB740960FB6F8949EBF0FBE8DBFFD
:104D800080915D02883061F4809136028130A1F417
:104D90008091770BC0915F0ED091600E8130B1F0A1
:104DA000C8E4DAE413C022E030E04EE250E063E110
:104DB00071E08FEA96E09DCF823091F78091770B7A
:104DC000C0915D0ED0915E0E823051F78E0122E0CF
:104DD00030E04EE350E06AE070E08AE396E00E9443
:104DE000651480912F0C813009F063C022E030E01F
:104DF0004EE350E063E171E08EE396E00E946514BB
:104E00008091450C90E00E945A109F938F9380E40C
:104E1000E82E86E0F82EFF92EF921F9296E0D92EB0
:104E2000DF9289E69BE09F938F930E9437588E0113
:104E300022E030E04EE350E069EB70E089E69BE071
:104E40000E94651480913A0C90E00E943E109F935E
:104E50008F93FF92EF921F92DF9283E69BE09F93E6
:104E60008F930E94375822E030E04EE350E06AE52D
:104E700070E083E69BE00E9465142DB73EB7205F8B
:104E80003F4F0FB6F8943EBF0FBE2DBF80915D021D
:104E9000873061F4809135028130A1F48091760BE6
:104EA000C0915F0ED091600E8130B1F0C8E4DAE4B9
:104EB00013C022E030E04EE350E063E171E08FEA9E
:104EC00096E09CCF823091F78091760BC0915D0E79
:104ED000D0915E0E823051F78E0122E030E04EE438
:104EE00050E06AE070E088E496E00E9465148091EA
:104EF0002E0C813009F062C022E030E04EE450E038
:104F000063E171E08EE396E00E9465148091440CA9
:104F100090E00E945A109F938F9310E4E12E16E0C8
:104F2000F12EFF92EF921F9206E0D02EDF9289E6DB
:104F30009BE09F938F930E9437588E0122E030E0D0
:104F40004EE450E069EB70E089E69BE00E94651456
:104F50008091390C90E00E943E109F938F93FF92B6
:104F6000EF921F92DF9283E69BE09F938F930E94C4
:104F7000375822E030E04EE450E06AE570E083E626
:104F80009BE00E9465148DB79EB740960FB6F894CB
:104F90009EBF0FBE8DBF80915D02863061F480910F
:104FA00034028130A1F48091750BC0915F0ED091D5
:104FB000600E8130B1F0C8E4DAE413C022E030E0E2
:104FC0004EE450E063E171E08FEA96E09DCF8230DD
:104FD00091F78091750BC0915D0ED0915E0E82307D
:104FE00051F78E0122E030E04EE550E06AE070E0DB
:104FF0008CE496E00E94651480912D0C813009F0BC
:1050000063C022E030E04EE550E063E171E08EE302
:1050100096E00E9465148091430C90E00E945A1023
:105020009F938F93A0E4EA2EA6E0FA2EFF92EF92D0
:105030001F92B6E0DB2EDF9289E69BE09F938F9371
:105040000E9437588E0122E030E04EE550E069EBD7
:1050500070E089E69BE00E9465148091380C90E036
:105060000E943E109F938F93FF92EF921F92DF92C8
:1050700083E69BE09F938F930E94375822E030E0B5
:105080004EE550E06AE570E083E69BE00E9465141F
:105090002DB73EB7205F3F4F0FB6F8943EBF0FBE0F
:1050A0002DBF80915D02853061F4809133028130A3
:1050B000A1F48091740BC0915F0ED091600E81308D
:1050C000B1F0C8E4DAE413C022E030E04EE550E08D
:1050D00063E171E08FEA96E09CCF823091F7809196
:1050E000740BC0915D0ED0915E0E823051F78E012F
:1050F00022E030E04EE650E06AE070E080E596E0C5
:105100000E94651480912C0C813009F062C022E06D
:1051100030E04EE650E063E171E08EE396E00E94FD
:1051200065148091420C90E00E945A109F938F93D7
:10513000E0E4EE2EE6E0FE2EFF92EF921F92F6E004
:10514000DF2EDF9289E69BE09F938F930E94375872
:105150008E0122E030E04EE650E069EB70E089E637
:105160009BE00E9465148091370C90E00E943E10F5
:105170009F938F93FF92EF921F92DF9283E69BE0C3
:105180009F938F930E94375822E030E04EE650E024
:105190006AE570E083E69BE00E9465148DB79EB7D8
:1051A00040960FB6F8949EBF0FBE8DBF80915D02F2
:1051B000843061F4809132028130A1F48091730BCC
:1051C000C0915F0ED091600E8130B1F0C8E4DAE496
:1051D00013C022E030E04EE650E063E171E08FEA78
:1051E00096E09DCF823091F78091730BC0915D0E58
:1051F000D0915E0E823051F78E0122E030E04EE712
:1052000050E06AE070E084E596E00E9465148091C9
:105210002B0C813009F063C022E030E04EE750E013
:1052200063E171E08EE396E00E9465148091410C89
:1052300090E00E945A109F938F9360E4E62E66E000
:10524000F62EFF92EF921F9276E0D72EDF9289E63C
:105250009BE09F938F930E9437588E0122E030E0AD
:105260004EE750E069EB70E089E69BE00E94651430
:105270008091360C90E00E943E109F938F93FF9296
:10528000EF921F92DF9283E69BE09F938F930E94A1
:10529000375822E030E04EE750E06AE570E083E600
:1052A0009BE00E9465142DB73EB7205F3F4F0FB6BD
:1052B000F8943EBF0FBE2DBF80915D02833061F434
:1052C000809131028130A1F48091720BC0915F0E08
:1052D000D091600E8130B1F0C8E4DAE413C022E06E
:1052E00030E04EE750E063E171E08FEA96E09CCF5A
:1052F000823091F78091720BC0915D0ED0915E0E5D
:10530000823051F78E0122E030E04EE850E06AE052
:1053100070E088E596E00E94651480912A0C813047
:1053200009F062C022E030E04EE850E063E171E055
:105330008EE396E00E9465148091400C90E00E94FC
:105340005A109F938F9340E4E42E46E0F42EFF9290
:10535000EF921F9256E0D52EDF9289E69BE09F9355
:105360008F930E9437588E0122E030E04EE850E0E3
:1053700069EB70E089E69BE00E9465148091350C32
:1053800090E00E943E109F938F93FF92EF921F92A6
:10539000DF9283E69BE09F938F930E94375822E031
:1053A00030E04EE850E06AE570E083E69BE00E9462
:1053B00065148DB79EB740960FB6F8949EBF0FBE8A
:1053C0008DBF80915D02823061F480913002813026
:1053D000A1F48091710BC0915F0ED091600E81306D
:1053E000B1F0C8E4DAE413C022E030E04EE850E067
:1053F00063E171E08FEA96E09DCF823091F7809172
:10540000710BC0915D0ED0915E0E823051F78E010E
:1054100022E030E04EE950E06AE070E08CE596E092
:105420000E9465148091290C813009F063C022E04C
:1054300030E04EE950E063E171E08EE396E00E94D7
:10544000651480913F0C90E00E945A109F938F93B7
:1054500020E4E22E26E0F22EFF92EF921F9236E039
:10546000D32EDF9289E69BE09F938F930E9437585B
:105470008E0122E030E04EE950E069EB70E089E611
:105480009BE00E9465148091340C90E00E943E10D5
:105490009F938F93FF92EF921F92DF9283E69BE0A0
:1054A0009F938F930E94375822E030E04EE950E0FE
:1054B0006AE570E083E69BE00E9465142DB73EB775
:1054C000205F3F4F0FB6F8943EBF0FBE2DBF8091B7
:1054D0005D02813061F480912F028130A1F48091CE
:1054E000700BC0915F0ED091600E8130B1F0C8E4B6
:1054F000DAE413C022E030E04EE950E063E171E00D
:105500008FEA96E09CCF823091F78091700BC0912A
:105510005D0ED0915E0E823051F78E0122E030E0B8
:105520004EEA50E06AE070E080E696E00E94651482
:105530008091280C813009F0A6C022E030E04EEACC
:1055400050E063E171E08EE396E00E946514809183
:105550003E0C90E00E945A109F938F9380E4E82EB7
:1055600086E0F82EFF92EF921F9296E0D92EDF92FE
:1055700089E69BE09F938F930E9437588E0122E02B
:1055800030E04EEA50E069EB70E089E69BE00E9473
:1055900065148091330C90E00E943E109F938F938E
:1055A000FF92EF921F92DF9283E69BE09F938F938F
:1055B0000E94375822E030E04EEA50E06AE570E0A1
:1055C00083E69BE00E9465142EE130E04CE350E05E
:1055D0006DEC70E08AE090E00E94EF170FEF1FEF94
:1055E00022E030E045ED50E06FE070E089EF94E0BC
:1055F0000E9465142EE130E048E750E06DEC70E069
:1056000084E690E00E94EF1700919E0E10919F0E8D
:1056100022E030E045ED50E062E870E084E696E09C
:105620000E9465142EE130E046E450E06DEC70E03D
:1056300080EF90E00E94EF17E0915D02F0E0E25D04
:10564000FD4F80812DB73EB7205F3F4F0FB6F894D6
:105650003EBF0FBE2DBF8130F9F400915F0E109157
:10566000600E22E030E045ED50E065EF70E089E645
:1056700096E00E946514DF91CF911F910F91FF90EA
:10568000EF90DF90089522E030E04EEA50E063E1D1
:1056900071E08FEA96E059CF823069F700915D0E94
:1056A00010915E0E22E030E045ED50E065EF70E0D5
:1056B0008FE696E0DECF0F931F938091E70E813047
:1056C00009F47CC0823021F41F910F910C947A254B
:1056D00081E080935F0F0091CF0E1091D00E25E1F5
:1056E00030E040E150E06EE870E08BE290E00E9434
:1056F0003214E0915D02F0E0E25DFD4F8081813087
:10570000E1F400915F0E1091600E1093620B009314
:10571000610B23E030E04EE850E069E270E08DE696
:1057200096E00E94651465E776E080E69FE00E94BF
:105730006C2260E081E20E94700BE0915D02F0E07B
:10574000E25DFD4F80818230E1F400915D0E1091A9
:105750005E0E1093620B0093610B23E030E04EE885
:1057600050E069E270E083E796E00E94651469E723
:1057700076E080E69FE00E946C2261E081E20E9478
:10578000700B6091610B7091620B80915D020E94C1
:105790000B158091740E882389F081E080935F0F50
:1057A0000091CF0E1091D00E25E130E04AE450E098
:1057B0006EE870E089E790E00E9432141F910F912B
:1057C00008950F931F93CF93DF9381E080935F0F32
:1057D00022E330E046E750E061E470E085E090E0ED
:1057E0000E94EF1722E330E04AE350E061E470E00A
:1057F00085EC90E00E94EF1722E330E04AE350E0AE
:1058000061E470E081E091E00E94EF1722E330E074
:1058100048E550E069EB70E085E090E00E94EF170A
:1058200022E330E048E550E069EB70E083EE90E081
:105830000E94EF178091740E2EE130E04CE350E0AF
:105840008111C1C067E870E082E890E00E94EF1724
:1058500022E330E046E750E068E070E085E090E069
:105860000E94561722E330E046E750E068E070E01F
:1058700085EC90E00E94561722E330E048E550E0C6
:1058800060E870E085E090E00E94561722E330E087
:1058900048E550E060E870E083EE90E00E94561723
:1058A00024E130E048E250E068E070E08CE890E00D
:1058B0000E9456171091E80E8091D60E9091D70E47
:1058C000111104C08091DD0E9091DE0E0E947E16B3
:1058D0008091E70E811160C0C091630ED091640E7B
:1058E00081E080935F0F113091F48091E50E81117A
:1058F0000EC000919E0E10919F0E23E030E045E116
:1059000050E064E270E087EE94E00E9465148E013E
:1059100023E030E04FE450E06AE170E08DE796E08C
:105920000E94651423E030E04FE450E06BED70E03E
:105930008EEF94E00E94651423E030E04FE450E0E5
:1059400067E171E080E095E00E94651423E030E0BB
:1059500047EC50E065E170E082E896E00E94651453
:105960008091740E81114AC022E030E04FE850E08F
:1059700067E870E086E896E00E9465140091630E87
:105980001091640E23E030E047EC50E064EF70E0EB
:105990008CEC98E00E9465140E94D01580915D0205
:1059A00060919E0E70919F0E811103C060E078EFB0
:1059B00080E00E940B150E945B2BDF91CF911F911D
:1059C0000F910C94902265E570E082E890E00E94CF
:1059D000EF1722E330E048E550E069EB70E084E740
:1059E00090E00E94EF1722E330E048E550E060E8E5
:1059F00070E084E790E00E9456172ACF22E030E062
:105A00004DE550E067E870E086E896E00E94651496
:105A100000919E0E10919F0E23E030E047EC50E085
:105A20006AE770E084E696E00E94651400919E0E9D
:105A300010919F0EA7CF85ED8093BC008091370F0A
:105A40009091380FA091390FB0913A0F0796A11D90
:105A5000B11D23E0B695A795979587952A95D1F71F
:105A60002091BC0024FD03C01092350F0895409191
:105A7000370F5091380F6091390F70913A0F452BC5
:105A8000462B472B69F30097A105B10541F02AE2A7
:105A90002A95F1F700C00197A109B109E1CF8091E2
:105AA000360F0C949A0C1F93CF93DF93EC01162FB3
:105AB0000E943E57181739F0612FCE01DF91CF9128
:105AC0001F910C944657DF91CF911F9108950F932A
:105AD0001F93CF93DF9381E080935F0F8091E70E58
