:10000000CBEF2AF00000000000EF00F0000000003D
:0A0010000000000000000000F3D71C
:100020000B6A0A6A096A00500402F4CF09F0F3CFA0
:1000300008F001500502F4CF0BF0F3CF0AF00050A6
:100040000502F3500926F4500A22E86A0B220150F7
:100050000402F3500926F4500A22E86A0B2208C071
:1000600000F009C001F00AC002F00BC003F012005A
:10007000086A096A100E0C6E0134083609360450FD
:10008000085E0550D8A0053C095ED8B007D00450E2
:1000900008260550D8B0053C0926D8900036013610
:0600A0000C2EEAD712004D
:1000A600000E81B0010E0801F96F000E5A1802E128
:1000B600010E591806E1F951010A03E1FD0E006E21
:1000C600A7D0C282C2A201D0FDD7C4CF01F0006A78
:1000D600C3500024036E000E0120046E03C001F01D
:1000E60004C002F001360190023601C08FF802C04A
:1000F60090F8030E025C02E1E80E015C03E2FE0EDC
:10010600006E86D09051060802E18F510E0803E278
:10011600FF0E006E7DD08282020E0C6E8D0E0D6E6D
:100126000D2EFED70C2EFCD700000000C282C2A204
:1001360001D0FDD78292C4CF01F0006AC3500024DB
:10014600036E000E0120046E03C001F004C002F02D
:1001560001360190023601C091F802C092F8010EF4
:10016600025C02E1220E015C04E2220E916F010E96
:10017600926F8FC800F090C801F0260E046E000E34
:10018600056E4BDF0A0E005E2B0E015A640E046EDE
:10019600000E056E6ADF00C0FAF801C0FBF8FAC867
:1001A60093F8FBC894F891C800F092C801F0260EA7
:1001B600046E000E056E31DF0A0E005E2B0E015A2C
:1001C600640E046E000E056E50DF00C095F801C087
:1001D60096F80150FB5D02E10050FA5D02E2006A0A
:1001E60017D09551935D016E96519459026E01C0D8
:1001F600F7F802C0F8F8000E006E0250005C02E14B
:100206000150F00803E2F00E006E02D0F7C800F0CD
:020216001200D4
:10021800F7C8C9FFC7B002D00000FCD7C9CF00F0AB
:020228001200C2
:10022A000B840BAE20EF01F0010E036E026A016A25
:0A023A00006A0A360232FF0E1200BD
:0E024400026A016A006A086A036A000E12006C
:100252000B820BAE33EF01F003680268016800689D
:080262000A360232FF0E120001
:08026A000AAE029E000E120014
:100272000801F26BF36BF46BF56BF66BF16B080E26
:10028200F15D26E2F4C801F0F5C802F0F44BF52B5B
:100292007D0E025C02E1000E015C1AE203DF00C087
:1002A200F6F80050FD0A03E1FD0E006E26D0F6516D
:1002B200FF0A03E1FF0E006E20D0F651F00807E3BB
:1002C200F651F227000EF323F46BF56BF12BD7D71F
:1002D200F151080A03E0FE0E006E0FD0F2C800F0E2
:1002E200F3C801F001320032019E01320032019E58
:0C02F20001320032019E00C0F6F812003C
:1002FE000CB0C1EF01F00CA267EF02F00E6A000E17
:10030E000264D8EF01F0F00E0214D8A4A3EF01F0AE
:10031E00023A01380F0B02260138F00B016E00383D
:10032E000F0B01260038F00B006E08380F0B00265D
:10033E000838F00B086E0E84D89002BEBCEF01F0A8
:10034E0008360036013602360E2A02BEBCEF01F028
:10035E0008360036013602360E2A02BEBCEF01F018
:10036E0008360036013602360E2A0E5003645DEF53
:10037E0002F0035E0BBC08AE62EF02F0D880800E76
:10038E0008640030000E002201220222D8A062EF83
:10039E0002F0023201320032034A67EF02F062EFDE
:1003AE0002F001C002F000C001F008C000F0086ABF
:1003BE00000E0E8602640FEF02F0F00E0214D8A4A7
:1003CE00F7EF01F0023A01380F0B02260138F00B5D
:1003DE00016E00380F0B01260038F00B006E0E84F4
:1003EE00D89002BEBCEF01F00036013602360E2A5E
:1003FE0002BEBCEF01F00036013602360E2A02BEF6
:10040E00BCEF01F00036013602360E2ABCEF01F0C9
:10041E0001C002F000C001F0006A000E0E960E88B8
:10042E0002643CEF02F0F00E0214D8A427EF02F0A3
:10043E00023A01380F0B02260138F00B016E0E84C2
:10044E00D89002BEBCEF01F0013602360E2A02BE73
:10045E00BCEF01F0013602360E2A02BEBCEF01F0EF
:10046E00013602360E2ABCEF01F001C002F0016A1D
:10047E00000E0E8602646CEF02F0F00E0214D8A489
:10048E004BEF02F0023A0E84D89002BEBCEF01F0A0
:10049E0002360E2A02BEBCEF01F002360E2A02BE52
:1004AE00BCEF01F002360E2ABCEF01F0010E0C6E0D
:1004BE00B5DE6FEF02F0020E0C6ED0DE6FEF02F0C3
:1004CE00040E0C6EBFDE6FEF02F0080E0C6EB3DE84
:0204DE0012000A
:1004E0000801F16B5850010A01E134D04350800AF1
:1004F00007E18186350E0D6E0D2EFED781922AD032
:100500004750000A02E1800EF16F8196350E0D6EA4
:100510000D2EFED781823E503F08F76F4750F727D8
:100520007BDE0801F1514524F76F76DE020E0C6E7A
:10053000080E0D6E0D2EFED70C2EFCD70000828407
:10054000020E0C6E080E0D6E0D2EFED70C2EFCD773
:060550000000829412007D
:10055600025006180E6E086A096A0B6A0350076491
:100566009EEF03F006500A6E068E028E03500B6E47
:100576000750036E000E0B64EEEF02F00B50075EA1
:10058600D8B48FEF03F0070E07645DEF03F0075E44
:1005960000C008F001C000F002C001F0026A074E78
:1005A6008FEF03F0076432EF03F0075E00C008F038
:1005B60001C000F0016A074E8FEF03F0076410EFE9
:1005C60003F0075E00C008F0006A074E8FEF03F0E5
:1005D6000764F7EF02F00AC002F005C001F004C09C
:1005E60000F0086AB8EF04F0030E076402EF03F0A8
:1005F600075E08380F0B086E074E8FEF03F0D89092
:100606000832074E8FEF03F0D8900832074E8FEF6F
:1006160003F0D89008328FEF03F0030E076421EF42
:1006260003F0075E08380F0B086E0038F00B08263B
:1006360000380F0B006E074E8FEF03F0D890003294
:100646000832074E8FEF03F0D89000320832074E7B
:100656008FEF03F0D890003208328FEF03F0030ECD
:10066600076449EF03F0075E08380F0B086E003881
:10067600F00B082600380F0B006E0138F00B002631
:1006860001380F0B016E074E8FEF03F0D890013241
:1006960000320832074E8FEF03F0D8900132003255
:1006A6000832074E8FEF03F0D8900132003208323D
:1006B6008FEF03F0030E07647AEF03F0075E083846
:1006C6000F0B086E0038F00B082600380F0B006E73
:1006D6000138F00B002601380F0B016E0238F00BC3
:1006E600012602380F0B026E074E8FEF03F0D890EB
:1006F6000232013200320832074E8FEF03F0D890F3
:100706000232013200320832074E8FEF03F0D890E2
:100716000232013200320832096A000E0EAE83EF51
:1007260004F0081E001E011E021E082A00220122D5
:10073600022283EF04F00750D8A4A4EF03F0B8EF29
:1007460004F0096A02C00AF0028E068E0750035CA6
:10075600076ED8B476EF04F0070E076444EF04F092
:10076600075E0450096E0550046E0650056E066A53
:10077600074E76EF04F0070E076419EF04F0075EE4
:100786000450096E0550046E056A074E76EF04F0B4
:10079600070E0764F7EF03F0075E0450096E046A5C
:1007A600074E76EF04F0070E0764DEEF03F00AC08B
:1007B60002F0B8EF04F0030E0764E9EF03F0075EFA
:1007C60009380F0B096E074E76EF04F0D890093200
:1007D600074E76EF04F0D8900932074E76EF04F014
:1007E600D890093276EF04F0030E076408EF04F0A0
:1007F600075E09380F0B096E0438F00B092604381A
:100806000F0B046E074E76EF04F0D89004320932CF
:10081600074E76EF04F0D89004320932074E76EF91
:1008260004F0D8900432093276EF04F0030E076420
:1008360030EF04F0075E09380F0B096E0438F00B31
:10084600092604380F0B046E0538F00B042605380C
:100856000F0B056E074E76EF04F0D8900532043282
:100866000932074E76EF04F0D89005320432093289
:10087600074E76EF04F0D89005320432093276EF4F
:1008860004F0030E076461EF04F0075E09380F0BEE
:10089600096E0438F00B092604380F0B046E053870
:1008A600F00B042605380F0B056E0638F00B0526EF
:1008B60006380F0B066E074E76EF04F0D890063218
:1008C600053204320932074E76EF04F0D89006322C
:1008D600053204320932074E76EF04F0D89006321C
:1008E600053204320932086A000E0EAE83EF04F0B8
:1008F600091E041E051E061E092A042205220622BA
:1009060009500826045000220550012206500222F2
:100916000EBE9AEF04F0D8A0A9EF04F0023201321D
:1009260000320832033EA9EF04F0B3EF04F0D8B06A
:10093600AEEF04F0000E081E001E011E021E082A5D
:100946000022012202220A7EAEEF04F0010E0C6E96
:10095600D3DCBAEF04F0020E0C6ECEDCBAEF04F074
:10096600040E0C6E73DCBAEF04F0000E0C6E12006F
:10097600086A080E0C6E003408360450085ED8B0BB
:0E09860002D00826D89000360C2EF5D71200AD
:10099400A5DD030E0B6ED80E0C6E410E0D6E0D2EE2
:1009A400FED70C2EFCD70B2EFAD7000000005FDC1C
:1009B40000C062F000500001615D0CE23EC03FF0F7
:1009C40045C046F047C042F043C044F062C061F005
:0A09D40062C022F062C000F01200C1
:1009DE00086A096A000E0762036474EF05F002509C
:1009EE0006180A6E075003267E0ED8A005EF05F0F6
:1009FE00035ED8B079EF05F009EF05F0035ED8A0DD
:100A0E007EEF05F0028E068E02C00EF001C00BF0D6
:100A1E0000C00DF000500402F4CF0CF0015005029E
:100A2E00F4CF00F0F3CF08F00402F3500C26F4508C
:100A3E000822000E00220D500502F3500C26F45031
:100A4E000822000E002202500402F3500826F45031
:100A5E00002202500502016A000E0122F350002608
:100A6E00F45001220D500602F3500826F4500022D5
:100A7E00026A000E012202220B500602F3500026DB
:100A8E00F4500122000E02220E500602F3500126EF
:100A9E00F450022202BE5CEF05F008360036013635
:100AAE0002360306D8B47EEF05F06FEF05F0D8805E
:100ABE00800E08640030000E002201220222D8A00F
:100ACE006FEF05F0023201320032034A79EF05F082
:100ADE000AAE029E000E81EF05F0010E22EC01F02F
:100AEE0081EF05F0020E29EC01F081EF05F0040E06
:060AFE0015EC01F01200EE
:080B04000B6A0B86FF0E1200C4
:100B0C000134083609360450085E0550D8A0053C5F
:100B1C00095E003601360F0E0C6E013408360936AC
:100B2C00045000A006D0085E0550D8A0053C095E14
:100B3C0005D008260550D8B0053C092600360136EC
:100B4C000C2EEBD700B006D0045008260550D8B0B8
:080B5C00053C0926000012000F
:100B64000D6A086A0050D8B4000C04180A6E0ABE54
:100B74000D1E0B6A04AE02D0041E042A00AE02D07D
:100B8400001E002A005004100A6E0ABE1FD0045032
:100B9400085E003600340836045008260036060E77
:100BA4000C6E00340836045000B0085E00A008261D
:100BB40000360C2EF6D700A008260BB015D00DAECB
:100BC400000C001E002A081E082A000C04AE09D0DE
:100BD40000BE04D00050086E006AF1D7006A002AF3
:100BE400000C001E0B2AD3D7082A0450085CD8A492
:0E0BF400E6D7086A002A00AEE2D7FF0C120016
:100C02000B800BAE0DEF06F0026A0AAEFF0E026E0B
:0C0C1200016E006E0A360232FF0E120066
:100C1E000801EE6B3F0EEF6F020E215C02E23F0EFB
:100C2E00EF6F39EC01F000C0EDF80050F00803E270
:100C3E00EDC800F058D0EC513E5C02E2ECC83EF03C
:100C4E00EC513E5EA0DE00C062F00050F00803E200
:100C5E0062C000F048D00801ED510001625D10E263
:100C6E00010E0801EE6FEC513E26EC513E268BDE56
:100C7E0000C062F00050F00803E262C000F033D012
:100C8E0062510801ED5D21E2EF513E5C1EE2EC5136
:100C9E003E5C1BE3EE51010A02E1EC513E26EE51A1
:100CAE00000A02E1EC513E5E3E50EF5D02E2EFC8FB
:100CBE003EF062C0EDF867DE00C062F00050C8087A
:100CCE0003E262C000F00FD0DBD70801EE51010A3B
:100CDE0002E1EC513E5EEE51000A02E1EC513E267D
:080CEE0070EC02F0006A120034
:100CF6000801EE6B7F0EEF6F020E215C02E23F0EE3
:100D0600EF6F39EC01F000C0EDF80050F00803E297
:100D1600EDC800F05AD0EC51455C02E2ECC845F053
:100D2600EC51455E34DE00C062F00050F00803E28C
:100D360062C000F04AD00801ED510001625D02E395
:100D4600456A10D0010E0801EE6FEC514526EC51B4
:100D560045261DDE00C062F00050F00803E262C0C6
:100D660000F033D062510801ED5D21E2EF51455CA0
:100D76001EE2EC51455C1BE3EE51010A02E1EC5127
:100D86004526EE51000A02E1EC51455E4550EF5D05
:100D960002E2EFC845F062C0EDF8F9DD00C062F08E
:100DA6000050F00803E262C000F00FD0DBD7080164
:100DB600EE51010A02E1EC51455EEE51000A02E1F4
:0C0DC600EC51452670EC02F0006A1200AF
:100DD2000A6A0350D8A40A800750D8A40A820A508B
:100DE200D8B44CEF07F0030AD8B405EF07F00AB005
:100DF20000EF07F006AE4AEF07F048EF07F002AE49
:100E020048EF07F04AEF07F00250800B0A6E029E8D
:100E12000650800B069E0A18D8B416EF07F00A5047
:100E2200D8B448EF07F04AEF07F00750035CD8B494
:100E320020EF07F0D8A03CEF07F042EF07F0065092
:100E4200025CD8B42AEF07F0D8A03CEF07F042EFDB
:100E520007F00550015CD8B434EF07F0D8A03CEF9E
:100E620007F042EF07F00450005CD8B44CEF07F0F3
:100E7200D8B042EF07F00A52D8B44AEF07F048EF71
:100E820007F00A52D8B448EF07F04AEF07F0D880CB
:0E0E92001200D8901200D880D88412001200EE
:100EA00003500718D8A464EF07F002500618D8A41E
:100EB00064EF07F001500518D8A464EF07F0005064
:0E0EC0000418D8B4D8841200D894120012007E
:100ECE000801EC51390806E3300EEC5D03E3010E28
:080EDE00006E01D0006A120051
:100EE6000B6A0C6A086A0350D8B4F7EF07F002C021
:100EF6000AF0028E9E0E035E03AEE7EF07F0036C68
:100F0600080E035CD8A0B4EF07F0036E083600C0E5
:100F160008F001C000F002C001F0026A080E035C8E
:100F2600D8A0B4EF07F0036E083600C008F001C081
:100F360000F0016A080E035CD8A0B4EF07F0036E58
:100F4600083600C008F0006A080E035CD8A0B4EFAB
:100F560007F0036E0836086A0350D8A4D890C0EF8D
:100F660007F00350D8B4C0EF07F0D8900232013230
:100F760000320832032EB8EF07F00BBC08A0D1EF01
:100F860007F0D8A0D1EF07F0082AD8B4002AD8B4C1
:100F9600012AD8B4022A02BEFBEF07F00AAEF7EF29
:100FA60007F0021E011E001E081E082AD8B4002AD9
:100FB600D8B4012AD8B4022AF7EF07F0026A016A08
:100FC600006A086AF7EF07F00B800BAE01EF08F036
:100FD600026A0AAE01EF08F0026E016E006E086E3C
:100FE6000A36023201EF08F00C6A000E02EF08F032
:100FF600010E0C6E000E02DE02EF08F0FF0E02502C
:10100600036E0150026E0050016E0850006E120011
:10101600D6CF03F0000E046ED7CF01F0006A03505E
:1010260000260450012200C003F001C004F01200A3
:101036006E0E0801EC5DD8A0C3D0640E046EECC839
:1010460000F096DC120E0024056E066A000E0622DB
:1010560005C000F006C001F0000E06BEFF0E026ECF
:10106600036E0036009001360236033600360090D5
:10107600013602360336AD0E0024F66E570E0120F9
:10108600F76E000E0220F86E0900F5CF00F0090099
:10109600F5CF01F00900F5CF02F00900F5CF03F016
:1010A600000E046E000E056E000E066E7E0E076EB6
:1010B60093DC00C0EDF801C0EEF802C0EFF803C003
:1010C600F0F8640E046EECC800F052DC08C000F0C4
:1010D6000A0E046E4DDC090E0024056E066A000E2B
:1010E600062205C000F006C001F0000E06BEFF0E87
:1010F600026E036E00360090013602360336003665
:101106000090013602360336AD0E0024F66E570EF9
:101116000120F76E000E0220F86E0900F5CF00F0F0
:101126000900F5CF01F00900F5CF02F00900F5CF6F
:1011360003F0EDC804F0EEC805F0EFC806F0F0C8FD
:1011460007F04ADC00C0EDF801C0EEF802C0EFF887
:1011560003C0F0F80A0E046EECC800F009DC08C003
:1011660000F000C001F0000E026E036E046E013640
:1011760001900236033604360136019002360336F4
:101186000436AD0E0124F66E570E0220F76E000EE1
:101196000320F86E0900F5CF00F00900F5CF01F045
:1011A6000900F5CF02F00900F5CF03F0EDC804F011
:1011B600EEC805F0EFC806F0F0C807F00DDCB1D0B8
:1011C600EC510A08D8B07ED00A0E046EECC800F0C6
:1011D600BBEC04F0090E0024056E066A000E06221A
:1011E60005C000F006C001F0000E06BEFF0E026E3E
:1011F600036E003600900136023603360036009044
:10120600013602360336AD0E0024F66E570E012067
:10121600F76E000E0220F86E0900F5CF00F0090007
:10122600F5CF01F00900F5CF02F00900F5CF03F084
:10123600000E046E000E056E000E066E7E0E076E24
:10124600EFEC04F000C0EDF801C0EEF802C0EFF8D4
:1012560003C0F0F80A0E046EECC800F0BBEC04F014
:1012660008C000F000C001F0000E026E036E046EAE
:1012760001360190023603360436013601900236F5
:1012860003360436AD0E0124F66E570E0220F76EB5
:10129600000E0320F86E0900F5CF00F00900F5CF27
:1012A60001F00900F5CF02F00900F5CF03F0EDC813
:1012B60004F0EEC805F0EFC806F0F0C807F0EFEC52
:1012C60004F02FD0ECC800F0000E016E026E036E23
:1012D600003600900136023603360036009001369D
:1012E60002360336AD0E0024F66E570E0120F76E59
:1012F600000E0220F86E0900F5CF00F00900F5CFC8
:1013060001F00900F5CF02F00900F5CF03F0000E59
:10131600046E000E056E000E066E7E0E076EEFEC76
:0413260004F01200BD
:08132A00067EABEC02F012009C
:06133200D76AD66A120022
:10133800800E0801EC19006E800E000A005CD8B01F
:101348006DD1EC510008016E01C0ECF8800E011857
:10135800006E800E6E0A005CD8A0C0D0640E046EC9
:10136800ECC800F0B2EC05F0120E0024056E000E79
:1013780000BEFF0E066E000E062205C000F006C075
:1013880001F0000E06BEFF0E026E036E00360090DE
:10139800013602360336003600900136023603362F
:1013A800AD0E0024F66E570E0120F76E000E0220D7
:1013B800F86E0900F5CFEDF80900F5CFEEF8090051
:1013C800F5CFEFF80900F5CFF0F8640E046EECC81D
:1013D80000F0B2EC05F008C000F00A0E046EB2ECA2
:1013E80005F0090E0024056E000E00BEFF0E066E05
:1013F800000E062205C000F006C001F0000E06BE71
:10140800FF0E026E036E0036009001360236033678
:1014180000360090013602360336AD0E0024F66E13
:10142800570E0120F76E000E0220F86E0900F5CF66
:1014380000F00900F5CF01F00900F5CF02F009002E
:10144800F5CF03F0EDC804F0EEC805F0EFC806F0DC
:10145800F0C807F0EFEC04F000C0EDF801C0EEF8BA
:1014680002C0EFF803C0F0F80A0E046EECC800F0F2
:10147800B2EC05F008C000F000C001F0000E00BE9C
:10148800FF0E026E036E046E0136019002360336BB
:10149800043601360190023603360436AD0E0124B7
:1014A800F66E570E0220F76E000E0320F86E090044
:1014B800F5CF00F00900F5CF01F00900F5CF02F0F3
:1014C8000900F5CF03F0EDC804F0EEC805F0EFC849
:1014D80006F0F0C807F0EFEC04F007D2800E0A0A15
:1014E800006E800EEC19005C71E20A0E046EECC806
:1014F80000F0B2EC05F0090E0024056E000E00BEE7
:10150800FF0E066E000E062205C000F006C001F0B0
:10151800000E06BEFF0E026E036E00360090013606
:101528000236033600360090013602360336AD0E19
:101538000024F66E570E0120F76E000E0220F86E9A
:101548000900F5CFEDF80900F5CFEEF80900F5CF61
:10155800EFF80900F5CFF0F80A0E046EECC800F0B9
:10156800B2EC05F008C000F000C001F0000E00BEAB
:10157800FF0E026E036E046E0136019002360336CA
:10158800043601360190023603360436AD0E0124C6
:10159800F66E570E0220F76E000E0320F86E090053
:1015A800F5CF00F00900F5CF01F00900F5CF02F002
:1015B8000900F5CF03F0EDC804F0EEC805F0EFC858
:1015C80006F0F0C807F0EFEC04F08FD1ECC800F09B
:1015D800000EECBFFF0E016E026E036E0036009027
:1015E80001360236033600360090013602360336DD
:1015F800AD0E0024F66E570E0120F76E000E022085
:10160800F86E0900F5CF00F00900F5CF01F00900E8
:10161800F5CF02F00900F5CF03F067D1800EEC1981
:10162800006E800E6E0A005CD8A0C0D0640E046EF6
:10163800ECC800F0B2EC05F0120E0024056E000EA6
:1016480000BEFF0E066E000E062205C000F006C0A2
:1016580001F0000E06BEFF0E026E036E003600900B
:10166800013602360336003600900136023603365C
:10167800790E0024F66E570E0120F76E000E022038
:10168800F86E0900F5CFEDF80900F5CFEEF809007E
:10169800F5CFEFF80900F5CFF0F8640E046EECC84A
:1016A80000F0B2EC05F008C000F00A0E046EB2ECCF
:1016B80005F0090E0024056E000E00BEFF0E066E32
:1016C800000E062205C000F006C001F0000E06BE9E
:1016D800FF0E026E036E00360090013602360336A6
:1016E80000360090013602360336790E0024F66E75
:1016F800570E0120F76E000E0220F86E0900F5CF94
:1017080000F00900F5CF01F00900F5CF02F009005B
:10171800F5CF03F0EDC804F0EEC805F0EFC806F009
:10172800F0C807F0EFEC04F000C0EDF801C0EEF8E7
:1017380002C0EFF803C0F0F80A0E046EECC800F01F
:10174800B2EC05F008C000F000C001F0000E00BEC9
:10175800FF0E026E036E046E0136019002360336E8
:10176800043601360190023603360436790E012418
:10177800F66E570E0220F76E000E0320F86E090071
:10178800F5CF00F00900F5CF01F00900F5CF02F020
:101798000900F5CF03F0EDC804F0EEC805F0EFC876
:1017A80006F0F0C807F0EFEC04F09FD0800E0A0AAC
:1017B800006E800EEC19005C71E20A0E046EECC833
:1017C80000F0B2EC05F0090E0024056E000E00BE14
:1017D800FF0E066E000E062205C000F006C001F0DE
:1017E800000E06BEFF0E026E036E00360090013634
:1017F8000236033600360090013602360336790E7B
:101808000024F66E570E0120F76E000E0220F86EC7
:101818000900F5CFEDF80900F5CFEEF80900F5CF8E
:10182800EFF80900F5CFF0F80A0E046EECC800F0E6
:10183800B2EC05F008C000F000C001F0000E00BED8
:10184800FF0E026E036E046E0136019002360336F7
:10185800043601360190023603360436790E012427
:10186800F66E570E0220F76E000E0320F86E090080
:10187800F5CF00F00900F5CF01F00900F5CF02F02F
:101888000900F5CF03F0EDC804F0EEC805F0EFC885
:1018980006F0F0C807F0EFEC04F027D0ECC800F031
:1018A800000EECBFFF0E016E026E036E0036009054
:1018B800013602360336003600900136023603360A
:1018C800790E0024F66E570E0120F76E000E0220E6
:1018D800F86E0900F5CF00F00900F5CF01F0090016
:0C18E800F5CF02F00900F5CF03F012006C
:1018F4000B6A0A6A096A086A0E6A033408360450D5
:10190400085E0550D8A0053C095E0650D8A0063CE8
:101914000A5E0750D8A0073C0B5EE86AD8A0010E07
:101924000E5E0336070E0C6E0334083609360A368B
:101934000B360E36045003A012D0085E0550D8A012
:10194400053C095E0650D8A0063C0A5E0750D8A0A4
:10195400073C0B5EE86AD8A0010E0E5E11D0082683
:101964000550D8B0053C09260650D8B0063C0A26D6
:101974000750D8B0073C0B26E86AD8B0010E0E26F3
:1019840003360C2ED1D70234083609360A360B3604
:101994000E36045003A012D0085E0550D8A0053CB2
:1019A400095E0650D8A0063C0A5E0750D8A0073C42
:1019B4000B5EE86AD8A0010E0E5E11D00826055011
:1019C400D8B0053C09260650D8B0063C0A26075074
:1019D400D8B0073C0B26E86AD8B0010E0E260236B2
:1019E400070E0C6E0234083609360A360B360E36EC
:1019F400045002A012D0085E0550D8A0053C095E30
:101A04000650D8A0063C0A5E0750D8A0073C0B5EDF
:101A1400E86AD8A0010E0E5E11D008260550D8B091
:101A2400053C09260650D8B0063C0A260750D8B013
:101A3400073C0B26E86AD8B0010E0E2602360C2E9F
:101A4400D1D70134083609360A360B360E3604501F
:101A540002A012D0085E0550D8A0053C095E0650CD
:101A6400D8A0063C0A5E0750D8A0073C0B5EE86A83
:101A7400D8A0010E0E5E11D008260550D8B0053C42
:101A840009260650D8B0063C0A260750D8B0073CB1
:101A94000B26E86AD8B0010E0E260136070E0C6E2E
:101AA4000134083609360A360B360E36045001A0C6
:101AB40012D0085E0550D8A0053C095E0650D8A097
:101AC400063C0A5E0750D8A0073C0B5EE86AD8A023
:101AD400010E0E5E11D008260550D8B0053C09262B
:101AE4000650D8B0063C0A260750D8B0073C0B264F
:101AF400E86AD8B0010E0E2601360C2ED1D7003478
:101B0400083609360A360B360E36045001A012D0B8
:101B1400085E0550D8A0053C095E0650D8A0063CD6
:101B24000A5E0750D8A0073C0B5EE86AD8A0010EF5
:101B34000E5E11D008260550D8B0053C0926065083
:101B4400D8B0063C0A260750D8B0073C0B26E86AF2
:101B5400D8B0010E0E260036070E0C6E003408367F
:101B640009360A360B360E36045000A012D0085E31
:101B74000550D8A0053C095E0650D8A0063C0A5E74
:101B84000750D8A0073C0B5EE86AD8A0010E0E5E91
:101B940011D008260550D8B0053C09260650D8B007
:101BA400063C0A260750D8B0073C0B26E86AD8B092
:101BB400010E0E2600360C2ED1D700B00ED00450E4
:101BC40008260550D8B0053C09260650D8B0063C76
:0C1BD4000A260750D8B0073C0B26120070
:101BE0000450000A12E10550000A0FE10650000AF5
:101BF0000CE10750000A09E1FF0E006EFF0E016EB6
:101C00007F0E026EFF0E036EA8D0086A096A0750A5
:101C1000D8B49BEF0EF00350D8B4A0EF0EF00250F2
:101C200006180A6E028E068E0E6A02C008F001C007
:101C30000CF000C00DF004500D5E0550D8A0053C1E
:101C40000C5E0650D8A0063C085E086A0C6A0D6A55
:101C5000D8A032EF0EF0D8900232013200320832B2
:101C6000010E0E6E0750035ED8A03FEF0EF07E0E01
:101C70000E240326D8B0A5EF0EF045EF0EF07E0E31
:101C80000E240326D8A0AAEF0EF0180E0B6E0D3608
:101C90000C3608360036013602360E360450005E29
:101CA0000550D8A0053C015E0650D8A0063C025E57
:101CB00006340E120EA060EF0EF00D806BEF0EF0EA
:101CC000045000260550D8B0053C01260650D8B077
:101CD000062802260D900B2E47EF0EF091EF0EF026
:101CE000D8900036013602360E360450005E05509C
:101CF000D8A0053C015E0650D8A0063C025E063422
:101D00000E10010B0D26D8B00C2AD8B4082AD8A47E
:101D100091EF0EF008320C320D32032AD8B4A5EF41
:101D20000EF00AAE089E0850026E0C50016E0D5067
:101D3000006EADEF0EF0010E82EC05F0ADEF0EF08F
:101D4000020E22EC01F0ADEF0EF0040E29EC01F0D2
:0C1D5000ADEF0EF0080E15EC01F01200D3
:101D5C000050086E0150006E0250016E0350026E6E
:101D6C00036A0B6A0C6A9E0E036E0A6A020E0C6EF4
:061D7C007FEC01F01200F3
:101D82000450000A08E10550000A05E1FF0E006E4A
:101D92007F0E016E58D00D6A096A086A0150001060
:101DA200D8B4000C015005180A6E0ABE0D1E0B6A4B
:101DB20005AE05D0041E051E042AD8B4052A01AEBC
:101DC20005D0001E011E002AD8B4012A01500510B8
:101DD2000A6E0ABE10D086EC05F00BB020D00DAE14
:101DE200000C001E011E002AD8B4012A081E091E7A
:101DF200082AD8B4092A000C05AE0DD001BE07D0BE
:101E02000150096E0050086E016A006AE8D7016A43
:101E1200006A002A000C011E001E0B2ADDD7082AC8
:101E2200D8B4092A0450085CD8A4D9D70550095C53
:101E3200D8A4D5D7096A086A002AD8B4012A01AE03
:081E4200CED70000FF0C1200D6
:101E4A000B6A0C6A0A6A086A0350D8B4ADEF0FF03D
:101E5A00028E9E0E035E03BE38EF0FF0D8B438EF41
:101E6A000FF09DEF0FF0036C080E035CD8A06AEF29
:101E7A000FF0036E083600C008F001C000F002C07F
:101E8A0001F0026A080E035CD8A06AEF0FF0036E35
:101E9A00083600C008F001C000F0016A080E035CB1
:101EAA00D8A06AEF0FF0036E083600C008F0006A87
:101EBA00080E035CD8A06AEF0FF0036E0836086AB2
:101ECA000350D8A4D89076EF0FF00350D8B476EF29
:101EDA000FF0D8900232013200320832032E6EEF30
:101EEA000FF00BBC08A087EF0FF0D8A087EF0FF018
:101EFA00082AD8B4002AD8B4012AD8B4022A02BEC1
:101F0A00B1EF0FF00AAEADEF0FF0021E011E001E78
:101F1A00081E082AD8B4002AD8B4012AD8B4022A3A
:101F2A00ADEF0FF0026A016A006A086AADEF0FF0BE
:101F3A000B800BAEB7EF0FF0026A0AAEB7EF0FF0E5
:101F4A00026E016E006E086E0A360232B7EF0FF0AB
:101F5A00000E0C6AB8EF0FF0010E0C6E01EC06F0E1
:101F6A00B8EF0FF0FF0E0250036E0150026E0050E0
:081F7A00016E0850006E120018
:101F8200A69CC5C8AAFFC4C8A9FFA69EA680A8CFC2
:041F920000F0120049
:101F9600BE0E0001615D1BE2010E0801EC6F0FEC45
:101FA60006F000C0C4F80050F00803E2C4C800F010
:101FB6004CD00BEC08F03F0E046E000E056EDEDE14
:101FC6000050000164270150652399EC09F0BE0E0C
:101FD600615D1BE2010E0801EC6F7BEC06F000C0B0
:101FE600C4F80050F00803E2C4C800F02ED00BEC91
:101FF60008F03F0E046E000E056EC0DE00500001B4
:1020060064270150652399EC09F0BE0E615D1BE261
:10201600010E0801EC6F0FEC06F000C0C4F800508A
:10202600F00803E2C4C800F010D00BEC08F03F0E35
:10203600046E000E056EA2DE0050000164270150FA
:0C204600652399EC09F061C000F0120065
:102052000801E46BE56BD86BD96BC6C800F0C7C842
:1020620001F0C8C802F0010EC627000EC723C8231C
:1020720000C0F6FF01C0F7FF02C0F8FF0900F5CF6C
:1020820000F000C0D5F80052D8B437EF20F0D55197
:10209200250A0BE0C4C8E1FFC5C8E2FFD5C8E6FFC8
:1020A200C44BC52BE44BE52BD8D7D66BD76BD86B7B
:1020B200D96B23D0D887010EC627000EC723C823A9
:1020C20059D0D881010EC627000EC723C82352D08B
:1020D200D883010EC627000EC723C8234BD0D98749
:1020E200010EC627000EC723C82344D0D885010E8F
:1020F200C627000EC723C8233DD0C6C8F6FFC7C8EF
:10210200F7FFC8C8F8FF0900F5CF01F001502D0A0A
:10211200D1E0C6C8F6FFC7C8F7FFC8C8F8FF090074
:10212200F5CF01F00150200ACCE0C6C8F6FFC7C8BF
:10213200F7FFC8C8F8FF0900F5CF01F001502B0ADC
:10214200C7E0C6C8F6FFC7C8F7FFC8C8F8FF09004E
:10215200F5CF01F00150230AC2E0C6C8F6FFC7C896
:10216200F7FFC8C8F8FF0900F5CF01F00150300AA7
:10217200BDE001D09ED7D8A301D0D891D8A701D075
:10218200D895C6C8F6FFC7C8F7FFC8C8F8FF090048
:10219200F5CF00F0000E016E00C0ECF867EC07F01E
:1021A200005236E0D66BD76BD6C800F0D7C801F024
:1021B2000A0E046E000E056E10EC00F0C6C8F6FFA3
:1021C200C7C8F7FFC8C8F8FF0900F5CF02F00250F0
:1021D2000024D66F000E0120D76F300ED65F000E9E
:1021E200D75B010EC627000EC723C823C6C8F6FF59
:1021F200C7C8F7FFC8C8F8FF0900F5CF00F0000E06
:10220200016E00C0ECF867EC07F00052CDE133D06C
:10221200C6C8F6FFC7C8F7FFC8C8F8FF0900F5CF60
:1022220001F001502A0A27E1C9C8E9FFCAC8EAFF3A
:10223200EECF00F0EECF01F000C0E9FF01C0EAFFEF
:10224200EECFD6F8EECFD7F8C9C8E9FFCAC8EAFF81
:10225200020EEE24006E000EEE20016EC9C8E1FFF0
:10226200CAC8E2FF00C0E6FF01C0E6FF010EC627B2
:10227200000EC723C823C6C8F6FFC7C8F7FFC8C8E1
:10228200F8FF0900F5CF01F001502E0A70E1010EAE
:10229200C627000EC723C823C6C8F6FFC7C8F7FF64
:1022A200C8C8F8FF0900F5CF01F001502A0A28E159
:1022B200C9C8E9FFCAC8EAFFEECF00F0EECF01F0CD
:1022C20000C0E9FF01C0EAFFEECFD3F8EECFD4F8A9
:1022D200C9C8E9FFCAC8EAFF020EEE24006E000E6A
:1022E200EE20016EC9C8E1FFCAC8E2FF00C0E6FFE6
:1022F20001C0E6FF010EC627000EC723C82336D051
:10230200D36BD46BC6C8F6FFC7C8F7FFC8C8F8FFBF
:102312000900F5CF00F0000E016E00C0ECF867EC8A
:1023220007F0005223E0D3C800F0D4C801F00A0E2F
:10233200046E000E056E10EC00F0C6C8F6FFC7C8AA
:10234200F7FFC8C8F8FF0900F5CF02F002500024D9
:10235200D36F000E0120D46F300ED35F000ED45B1A
:10236200010EC627000EC723C823CCD703D0D36BD8
:10237200D46BD989C6C800F0C7C801F0C8C802F03A
:10238200010EC627000EC723C82300C0F6FF01C0F6
:10239200F7FF02C0F8FF0900F5CFD5F8F9D0E4C87D
:1023A20000F0E5C801F03BEF20F0D889E3D7D985EA
:1023B2002ED1D88BD9812BD1D98329D1D88D27D1B0
:1023C20026D1D88BD88F23D1C9C8E9FFCAC8EAFF62
:1023D200EECF00F0EECF01F000C0E9FF01C0EAFF4E
:1023E200EECFE0F8EECFE1F8C9C8E9FFCAC8EAFFCC
:1023F200020EEE24006E000EEE20016EC9C8E1FF4F
:10240200CAC8E2FF00C0E6FF01C0E6FF000EE11904
:1024120002E1000EE01904E14C0EE06F000EE16FE4
:10242200E26BE36BE251E025E96EE351E121EA6EF2
:10243200EE520BE0010EE225006E000EE321016E6A
:1024420000C0E2F801C0E3F8EDD7D351D4110AE09D
:10245200E351D45D02E1E251D35D04E2D3C8E2F874
:10246200D4C8E3F8D751E35D02E1D651E25D05E25B
:10247200E251D65FE351D75B02D0D66BD76BD8B7A8
:1024820016D0D6C800F0D7C801F0010ED65F000EF4
:10249200D75B005001100BE0C4C8E1FFC5C8E2FFE2
:1024A200200EE66EC44BC52BE44BE52BEAD7E2C8FF
:1024B20002F0E3C803F0010EE25D006E000EE35984
:1024C200016E00C0E2F801C0E3F80250031019E007
:1024D200E0C8E9FFE1C8EAFFC4C8E1FFC5C8E2FFFE
:1024E200EECFE6FFC44BC52B010EE025006E000EB9
:1024F200E121016E00C0E0F801C0E1F8E44BE52BF8
:10250200D6D7D8A716D0D6C800F0D7C801F0010E8A
:10251200D65F000ED75B005001100BE0C4C8E1FF8C
:10252200C5C8E2FF200EE66EC44BC52BE44BE52B7B
:10253200EAD793D5C9C8E9FFCAC8EAFFEECF00F0CF
:10254200EECF01F000C0E9FF01C0EAFFEECFD5F8FF
:10255200C9C8E9FFCAC8EAFF020EEE24006E000EE7
:10256200EE20016EC9C8E1FFCAC8E2FF00C0E6FF63
:1025720001C0E6FFD50EE06F080EE16F010EE26FBB
:10258200000EE36F62D7C00ED813000ED9133FD0EE
:10259200D551000AD8B403D7D5516C0AD8B405D79F
:1025A200D5514C0AD8B401D7D551660AD8B4FFD652
:1025B200D551450AD8B4FDD6D551650AD8B4FAD654
:1025C200D551670AD8B4F8D6D5516F0AD8B4F6D621
:1025D200D551640AD8B4F4D6D551690AD8B4F0D624
:1025E200D551700AD8B4EDD6D551580AD8B4E9D627
:1025F200D551780AD8B4E6D6D551730AD8B4E4D600
:10260200D551630A97E0D551750ABDE0B3D7000EE4
:10261200D815006ED951070B016E00500110D8B4C5
:10262200DEEF1BF0D9A904D0060ED36F000ED46FD3
:10263200C9C8E9FFCAC8EAFFEECF00F0EECF01F049
:1026420000C0E9FF01C0EAFFEECFDAF8EECFDBF817
:10265200EECFDCF8EECFDDF8C9C8E9FFCAC8EAFF61
:10266200040EEE24006E000EEE20016EC9C8E1FFDA
:10267200CAC8E2FF00C0E6FF01C0E6FF046A056ABD
:10268200066A076ADAC800F0DBC801F0DCC802F0AB
:10269200DDC803F0E9EC06F0010ED8B0000E006EC2
:1026A200005205E0DC7F030ED813000ED913DE6B57
:1026B200DF6BDAC800F0DBC801F0DCC802F0DDC86D
:1026C20003F0046A056A066A076A50EC07F0000E16
:1026D200D8A4010E006E0052D8B48AD0DDC800F032
:1026E200016A026A036AFF0E0016000E01167E0ED0
:1026F200005E000E015A00C0DEF801C0DFF8010ED4
:10270200005E000E015A00C0DEF801C0DFF8030EC1
:10271200046E000E056E10EC00F000C0DEF801C081
:10272200DFF80A0E046E000E056EC1EC0EF000C05A
:10273200DEF801C0DFF8800E0118026E800E025C26
:1027420002E1000E005C05E2010E0801DE5F000EF0
:10275200DF5B0801DE510008EC6F9CEC09F0DAC87F
:1027620004F0DBC805F0DCC806F0DDC807F0EFECCA
:1027720004F000C0E0F801C0E1F802C0E2F803C0D2
:10278200E3F8000E046E000E056E000E066E7F0E5C
:10279200076EE0C800F0E1C801F0E2C802F0E3C849
:1027A20003F0E9EC06F0010ED8B0000E006E005204
:1027B20005E0010EDE5F000EDF5B1AD0000E046E34
:1027C200000E056E200E066E820E076EE0C800F047
:1027D200E1C801F0E2C802F0E3C803F0E9EC06F058
:1027E200000ED8B0010E006E005202E0DE4BDF2B6D
:1027F200800E006E800EDF19005C02E1DE510008DF
:1028020003E3010ED56F02D0DEC8D5F8D9B118D0D6
:10281200D9A315D0800EDF19006E7F0E005C02E195
:10282200FC0EDE5D0BE3800EDF19006E800ED41904
:10283200005C02E1D351DE5D01E201D001D0EFD3B1
:10284200D351D41106E0D9A304D0010ED35F000EF8
:10285200D45BD451000802E1D351080803E2080E08
:10286200D56F02D0D3C8D5F8DAC800F0DBC801F0C2
:10287200DCC802F0DDC803F0046A056A066A076A6A
:1028820050EC07F0000ED8A4010E006E0052D8B42E
:102892004BD1DEC8ECF89CEC09F000C004F001C09A
:1028A20005F002C006F003C007F0DAC800F0DBC88A
:1028B20001F0DCC802F0DDC803F0F0EC0DF000C05E
:1028C200DAF801C0DBF802C0DCF803C0DDF8080169
:1028D200D5510008EC6F9CEC09F000C004F001C077
:1028E20005F002C006F003C007F0DAC800F0DBC84A
:1028F20001F0DCC802F0DDC803F0F0EC0DF000C01E
:10290200E6F801C0E7F802C0E8F803C0E9F8E6C853
:10291200DAF8E7C8DBF8E8C8DCF8E9C8DDF8E6C8A9
:1029220000F0E7C801F0E8C802F0E9C803F025ECBE
:102932000FF0AEEC0EF000C004F001C005F002C0D2
:1029420006F003C007F0E6C800F0E7C801F0E8C8E7
:1029520002F0E9C803F095EC09F0000E046E000ED7
:10296200056E000E066E7E0E076EE9EC06F0000E96
:10297200D8B0010E006E00521AE0DAC800F0DBC8CF
:1029820001F0DCC802F0DDC803F0000E046E000E98
:10299200056E000E066E7E0E076EABEC02F000C0F6
:1029A200DAF801C0DBF802C0DCF803C0DDF8DAC8EF
:1029B20000F0DBC801F0DCC802F0DDC803F025EC52
:1029C2000FF00801D551010F096E0A6A000E0A22A2
:1029D20009C004F00AC005F0000E0ABEFF0E066E22
:1029E200076E043604900536063607360436049020
:1029F200053606360736110E0424F66E580E0520EB
:102A0200F76E000E0620F86E0900F5CF05F00900FA
:102A1200F5CF06F00900F5CF07F00900F5CF08F071
:102A22000850035C08E10750025C05E10650015CB6
:102A320002E10550005C1EE30801DAC800F0DBC8C1
:102A420001F0DCC802F0DDC803F0CD0E046ECC0E3E
:102A5200056E4C0E066E7B0E076EEFEC04F000C0A6
:102A6200DAF801C0DBF802C0DCF803C0DDF8DE4BA7
:102A7200DF2B5AD0DAC800F0DBC801F0DCC802F064
:102A8200DDC803F025EC0FF0D5C804F0000E056E8A
:102A9200066E076E0436049005360636073604368F
:102AA2000490053606360736110E0424F66E580ECB
:102AB2000520F76E000E0620F86E0900F5CF05F02E
:102AC2000900F5CF06F00900F5CF07F00900F5CFB0
:102AD20008F00850035C08E10750025C05E106506B
:102AE200015C02E10550005C1FE20801DAC800F057
:102AF200DBC801F0DCC802F0DDC803F0000E046E92
:102B0200000E056E200E066E820E076EEFEC04F0CC
:102B120000C0DAF801C0DBF802C0DCF803C0DDF85F
:102B2200010EDE5F000EDF5B0801D9A393D0D9B797
:102B320091D0800E000A006E800ED419005C02E172
:102B4200D3510A0804E20A0ED36F000ED46FDAC81A
:102B520000F0DBC801F0DCC802F0DDC803F025ECB0
:102B62000FF000C0E0F801C0E1F802C0E2F803C0D3
:102B7200E3F8E051E111E211E31142E00A0E046EC2
:102B8200000E056E066E076EE0C800F0E1C801F0A7
:102B9200E2C802F0E3C803F07AEC0CF008C000F0DF
:102BA20009C001F00AC002F00BC003F0000E046E6F
:102BB200031808E10450021805E10450011802E16B
:102BC2000050000A1DE1010ED35F000ED45B0A0E15
:102BD200046E000E056E066E076EE0C800F0E1C8D6
:102BE20001F0E2C802F0E3C803F07AEC0CF000C096
:102BF200E0F801C0E1F802C0E2F803C0E3F8B9D797
:102C0200800ED419006E800E005C02E1D551D35DB6
:102C120021E2D351D55DEC6F9CEC09F000C004F0C9
:102C220001C005F002C006F003C007F0DAC800F0E8
:102C3200DBC801F0DCC802F0DDC803F0F0EC0DF0F7
:102C420000C0DAF801C0DBF802C0DCF803C0DDF82E
:102C5200D3C8D5F8050E0801D325006E000ED42185
:102C6200016E0050D65F0150D75BD351D41103E1FE
:102C7200D9B701D004D0010ED65F000ED75B030E88
:102C8200D815006ED9C801F0000E011600500110CF
:102C920004E0010ED65F000ED75BD8A539D0D8A3C9
:102CA20012D0D8A103D02D0ECB6F02D02B0ECB6F3A
:102CB200C4C8E1FFC5C8E2FFCBC8E6FFC44BC52BC1
:102CC200E44BE52B0CD0D8A10AD0C4C8E1FFC5C89B
:102CD200E2FF200EE66EC44BC52BE44BE52B800EC3
:102CE200006E800ED719005C02E1D65100080FE297
:102CF200C4C8E1FFC5C8E2FF300EE66EC44BC52B67
:102D0200E44BE52B010ED65F000ED75BE8D73AD035
:102D1200D8B718D0800E006E800ED719005C02E181
:102D2200D65100080FE2C4C8E1FFC5C8E2FF200E79
:102D3200E66EC44BC52BE44BE52B010ED65F000EAD
:102D4200D75BE8D7D8A312D0D8A103D02D0ECC6F71
:102D520002D02B0ECC6FC4C8E1FFC5C8E2FFCCC8BD
:102D6200E6FFC44BC52BE44BE52B0CD0D8A10AD00F
:102D7200C4C8E1FFC5C8E2FF200EE66EC44BC52BF6
:102D8200E44BE52BDAC800F0DBC801F0DCC802F046
:102D9200DDC803F025EC0FF000C0E0F801C0E1F857
:102DA20002C0E2F803C0E3F8D5C800F0000E016EDD
:102DB200026E036E0036009001360236033600368C
:102DC2000090013602360336110E0024F66E580EBC
:102DD2000120F76E000E0220F86E0900F5CF04F014
:102DE2000900F5CF05F00900F5CF06F00900F5CF8F
:102DF20007F0E0C800F0E1C801F0E2C802F0E3C861
:102E020003F07AEC0CF0300E0026C4C8E1FFC5C80E
:102E1200E2FF00C0E6FFC44BC52BE44BE52BD351C8
:102E2200D41103E1D9B701D06FD0C4C8E1FFC5C83E
:102E3200E2FF2E0EE66EC44BC52BE44BE52BD551BB
:102E4200D35F000ED45BD5534DE0D507D5C800F053
:102E5200000E016E026E036E0036009001360236DD
:102E6200033600360090013602360336110E002476
:102E7200F66E580E0120F76E000E0220F86E090061
:102E8200F5CF04F00900F5CF05F00900F5CF06F003
:102E92000900F5CF07F0E0C800F0E1C801F0E2C890
:102EA20002F0E3C803F07AEC0CF00A0E046E000E96
:102EB200056E066E076E7AEC0CF008C000F009C0D1
:102EC20001F00AC002F00BC003F0300E0026C4C8A5
:102ED200E1FFC5C8E2FF00C0E6FFC44BC52BE44BCF
:102EE200E52BB1D7D351D4110FE0C4C8E1FFC5C857
:102EF200E2FF300EE66EC44BC52BE44BE52B010E10
:102F0200D35F000ED45BEED7D8AB0BD0C4C8E1FFC1
:102F1200C5C8E2FF450EE66EC44BC52BE44BE52B5C
:102F22000AD0C4C8E1FFC5C8E2FF650EE66EC44B15
:102F3200C52BE44BE52B800EDF19006E800E005C82
:102F420002E1000EDE5D11E2DE510008DE6FDF51AC
:102F5200000EDF57C4C8E1FFC5C8E2FF2D0EE66EC2
:102F6200C44BC52BE44BE52B0AD0C4C8E1FFC5C84E
:102F7200E2FF2B0EE66EC44BC52BE44BE52B0A0E8B
:102F8200046E000E056EDEC800F0DFC801F0C1EC71
:102F92000EF0300E0026C4C8E1FFC5C8E2FF00C033
:102FA200E6FF0801C44BC52BE44BE52B0A0E046E69
:102FB200000E056EDEC800F0DFC801F0C1EC0EF0B5
:102FC20008C000F009C001F0300E0026C4C8E1FFBD
:102FD200C5C8E2FF00C0E6FF0801C44BC52BE44BA5
:102FE200E52BD8A71AD0800E006E800ED719005C90
:102FF20002E1D651000811E2C4C8E1FFC5C8E2FFF0
:10300200200EE66EC44BC52BE44BE52B010ED65FBA
:10301200000ED75BD651D711EFE12EEF10F0D9A3F6
:10302200F3D0800EDF19006E800E005C02E1000E0C
:10303200DE5D0AE2010EDE5D006E000EDF59016EFA
:103042000050D35F0150D45BDAC800F0DBC801F056
:10305200DCC802F0DDC803F025EC0FF000C0E0F898
:1030620001C0E1F802C0E2F803C0E3F8010ED56F37
:10307200D5510A0A34E0D5C800F0000E016E026E86
:10308200036E003600900136023603360036009099
:10309200013602360336110E0024F66E580E012058
:1030A200F76E000E0220F86E0900F5CF01F009005C
:1030B200F5CF02F00900F5CF03F00900F5CF04F0D7
:1030C2000450E35D08E10350E25D05E10250E15D79
:1030D20002E10150E05D01E202D0D52BC9D7D55102
:1030E200D35DEA6F000ED459EB6FEAC8D3F8EBC890
:1030F200D4F8E0C800F0E1C801F0E2C802F0E3C889
:1031020003F0AEEC0EF000C004F001C005F002C006
:1031120006F003C007F0DAC800F0DBC801F0DCC833
:1031220002F0DDC803F095EC09F000C0E6F801C03A
:10313200E7F802C0E8F803C0E9F8EAC8ECF89CEC4A
:1031420009F0E6C804F0E7C805F0E8C806F0E9C8E7
:1031520007F0EFEC04F0000E046E000E056E000E98
:10316200066E7E0E076EABEC02F025EC0FF000C08F
:10317200E0F801C0E1F802C0E2F803C0E3F8D3517D
:10318200D41142E00A0E046E000E056E066E076E42
:10319200E0C800F0E1C801F0E2C802F0E3C803F0C1
:1031A2007AEC0CF008C000F009C001F00AC002F08D
:1031B2000BC003F0000E046E031808E1045002185D
:1031C20005E10450011802E10050000A1DE10A0E57
:1031D200046E000E056E066E076EE0C800F0E1C8D0
:1031E20001F0E2C802F0E3C803F07AEC0CF000C090
:1031F200E0F801C0E1F802C0E2F803C0E3F8010E12
:10320200D35F000ED45BBBD7800E006E800ED41944
:10321200005C02E1D3510C0816E3D3C8ECF81BECB6
:1032220008F0DAC804F0DBC805F0DCC806F0DDC837
:1032320007F0ABEC02F000C0DAF801C0DBF802C024
:10324200DCF803C0DDF8DAC800F0DBC801F0DCC846
:1032520002F0DDC803F0046A056A066A076A50ECE8
:1032620007F0000ED8A4010E006E0052D8B477D039
:10327200DAC800F0DBC801F0DCC802F0DDC803F0F8
:1032820025EC0FF0000E046E031808E1045002183A
:1032920005E10450011802E10050000A60E1800ECD
:1032A200006E800EDF19005C02E1DE51010857E278
:1032B200DEC8ECF89CEC09F000C004F001C005F097
:1032C20002C006F003C007F0DAC800F0DBC801F064
:1032D200DCC802F0DDC803F0F0EC0DF05F0E046E06
:1032E200700E056E090E066E810E076EE9EC06F091
:1032F200010ED8B0000E006E005206E0090E080161
:10330200DE5F000EDF5B05D00801080EDE5F000EF7
:10331200DF5BDEC8ECF89CEC09F000C004F001C0F1
:1033220005F002C006F003C007F0DAC800F0DBC8FF
:1033320001F0DCC802F0DDC803F0F0EC0DF025EC82
:103342000FF000C0E0F801C0E1F802C0E2F803C0EB
:10335200E3F80801DA6BDB6BDC6BDD6B38D0DAC8C3
:1033620000F0DBC801F0DCC802F0DDC803F025EC98
:103372000FF000C0E0F801C0E1F802C0E2F803C0BB
:10338200E3F8E0C800F0E1C801F0E2C802F0E3C8E7
:1033920003F0AEEC0EF000C004F001C005F002C074
:1033A20006F003C007F0DAC800F0DBC801F0DCC8A1
:1033B20002F0DDC803F095EC09F000C0DAF801C0B4
:1033C200DBF802C0DCF803C0DDF8DE6BDF6B010E58
:1033D200D56FD5510A0A34E0D5C800F0000E016E4F
:1033E200026E036E00360090013602360336003656
:1033F2000090013602360336110E0024F66E580E86
:103402000120F76E000E0220F86E0900F5CF01F0E0
:103412000900F5CF02F00900F5CF03F00900F5CF5E
:1034220004F00450E35D08E10350E25D05E102505F
:10343200E15D02E10150E05D01E202D0D52BC9D786
:10344200D551D325006E000ED421016EDE51002627
:10345200DF5101220050D65F0150D75BD9B704D0AB
:10346200D351D41101E104D0010ED65F000ED75B17
:10347200030ED815006ED9C801F0000E01160050D7
:10348200011004E0010ED65F000ED75BD8A539D03B
:10349200D8A312D0D8A103D02D0ECD6F02D02B0EFF
:1034A200CD6FC4C8E1FFC5C8E2FFCDC8E6FFC44B7B
:1034B200C52BE44BE52B0CD0D8A10AD0C4C8E1FF40
:1034C200C5C8E2FF200EE66EC44BC52BE44BE52BCC
:1034D200800E006E800ED719005C02E1D651000802
:1034E2000FE2C4C8E1FFC5C8E2FF300EE66EC44B6E
:1034F200C52BE44BE52B010ED65F000ED75BE8D758
:103502003AD0D8B718D0800E006E800ED719005C62
:1035120002E1D65100080FE2C4C8E1FFC5C8E2FFCC
:10352200200EE66EC44BC52BE44BE52B010ED65F95
:10353200000ED75BE8D7D8A312D0D8A103D02D0EA6
:10354200CE6F02D02B0ECE6FC4C8E1FFC5C8E2FF1A
:10355200CEC8E6FFC44BC52BE44BE52B0CD0D8A15B
:103562000AD0C4C8E1FFC5C8E2FF200EE66EC44B14
:10357200C52BE44BE52BD5C800F0D50700524CE033
:10358200D5C800F0000E016E026E036E0036009088
:103592000136023603360036009001360236033613
:1035A200110E0024F66E580E0120F76E000E022056
:1035B200F86E0900F5CF04F00900F5CF05F0090017
:1035C200F5CF06F00900F5CF07F0E0C800F0E1C83A
:1035D20001F0E2C802F0E3C803F07AEC0CF00A0E44
:1035E200046E000E056E066E076E7AEC0CF008C0D3
:1035F20000F009C001F00AC002F00BC003F0300E67
:103602000026C4C8E1FFC5C8E2FF00C0E6FFC44B04
:10361200C52BE44BE52BAFD7800E006E800EDF1971
:10362200005C02E1DE5100080FE2C4C8E1FFC5C838
:10363200E2FF300EE66EC44BC52BE44BE52B010EC8
:10364200DE5F000EDF5BE8D7800E000A006E800EA0
:10365200D419005C02E1D351080803E2080ED56FC9
:1036620002D0D3C8D5F8D551D35F000ED45BD55361
:1036720003E1D9B701D00AD0C4C8E1FFC5C8E2FF4F
:103682002E0EE66EC44BC52BE44BE52BD5C8ECF8E9
:103692009CEC09F0DAC804F0DBC805F0DCC806F0DF
:1036A200DDC807F0EFEC04F073EC07F000C0E0F8BF
:1036B20001C0E1F802C0E2F803C0E3F8D5534DE0DF
:1036C200D507D5C800F0000E016E026E036E0036FB
:1036D200009001360236033600360090013602367B
:1036E2000336110E0024F66E580E0120F76E000EFE
:1036F2000220F86E0900F5CF04F00900F5CF05F0BD
:103702000900F5CF06F00900F5CF07F0E0C800F098
:10371200E1C801F0E2C802F0E3C803F07AEC0CF071
:103722000A0E046E000E056E066E076E7AEC0CF041
:1037320008C000F009C001F00AC002F00BC003F09B
:10374200300E0026C4C8E1FFC5C8E2FF00C0E6FF94
:10375200C44BC52BE44BE52BB1D7D351D4110FE0A9
:10376200C4C8E1FFC5C8E2FF300EE66EC44BC52BEC
:10377200E44BE52B010ED35F000ED45BEED7D8A746
:103782001AD0800E006E800ED719005C02E1D6516D
:10379200000811E2C4C8E1FFC5C8E2FF200EE66ED0
:1037A200C44BC52BE44BE52B010ED65F000ED75B55
:1037B200D651D711EFE12EEF10F0C00ED815016EE1
:1037C200D9C802F0000E0216000E021802E1000E25
:1037D2000118D8A480D0D8A927D0C9C8E9FFCAC87F
:1037E200EAFFEECF00F0EECF01F000C0E9FF01C02A
:1037F200EAFFEECFE0F8EECFE1F8EECFE2F8EECF5F
:10380200E3F8C9C8E9FFCAC8EAFF040EEE24006E55
:10381200000EEE20016EC9C8E1FFCAC8E2FF00C077
:10382200E6FF01C0E6FF2FD0C9C8E9FFCAC8EAFF18
:10383200EECF00F0EECF01F000C0E9FF01C0EAFFD9
:10384200EECF00F0EECF01F0000E01BEFF0E026ED1
:10385200036E00C0E0F801C0E1F802C0E2F803C064
:10386200E3F8C9C8E9FFCAC8EAFF020EEE24006EF7
:10387200000EEE20016EC9C8E1FFCAC8E2FF00C017
:10388200E6FF01C0E6FF800EE319006E800E005CC9
:1038920008E1000EE25D05E1000EE15D02E1000ECD
:1038A200E05D18E2030ED813000ED913006A016A14
:1038B200026A036AE051005EE151015AE251025A82
:1038C200E351035A00C0E0F801C0E1F802C0E2F897
:1038D20003C0E3F84ED0D8A927D0C9C8E9FFCAC8A7
:1038E200EAFFEECF00F0EECF01F000C0E9FF01C029
:1038F200EAFFEECFE0F8EECFE1F8EECFE2F8EECF5E
:10390200E3F8C9C8E9FFCAC8EAFF040EEE24006E54
:10391200000EEE20016EC9C8E1FFCAC8E2FF00C076
:10392200E6FF01C0E6FF25D0C9C8E9FFCAC8EAFF21
:10393200EECF00F0EECF01F000C0E9FF01C0EAFFD8
:10394200EECFE0F8EECFE1F8000EE26FE36FC9C808
:10395200E9FFCAC8EAFF020EEE24006E000EEE2056
:10396200016EC9C8E1FFCAC8E2FF00C0E6FF01C09C
:10397200E6FF000ED41902E1000ED3190FE1000E8A
:10398200006EE31908E10050E21905E10050E11967
:1039920002E1E051000A02E1D34BD42BC00ED8154C
:1039A200006E00C005F0AED0010ED56FD5510A0AE7
:1039B20034E0D5C800F0000E016E026E036E0036D0
:1039C2000090013602360336003600900136023688
:1039D2000336110E0024F66E580E0120F76E000E0B
:1039E2000220F86E0900F5CF01F00900F5CF02F0D0
:1039F2000900F5CF03F00900F5CF04F00450E35DB0
:103A020008E10350E25D05E10250E15D02E101508F
:103A1200E05D01E202D0D52BC9D782D0010ED56F6D
:103A2200D551080A34E0D5C800F0000E016E026ECE
:103A3200036E0036009001360236033600360090DF
:103A42000136023603365F0E0024F66E580E012050
:103A5200F76E000E0220F86E0900F5CF01F00900A2
:103A6200F5CF02F00900F5CF03F00900F5CF04F01D
:103A72000450E35D08E10350E25D05E10250E15DBF
:103A820002E10150E05D01E202D0D52BC9D748D056
:103A9200010ED56FD5510C0A34E0D5C800F0000EE6
:103AA200016E026E036E0036009001360236033656
:103AB20000360090013602360336E10E0024F66E1F
:103AC200570E0120F76E000E0220F86E0900F5CFA6
:103AD20001F00900F5CF02F00900F5CF03F009006B
:103AE200F5CF04F00450E35D08E10350E25D05E127
:103AF2000250E15D02E10150E05D01E202D0D52B0E
:103B0200C9D70ED00550000AD8B44ED70550C00A06
:103B1200D8B44AD70550800A81E00550400AB8E07F
:103B2200800E006E800ED419005C02E1D351D55D87
:103B320003E2D3C8D5F80DD0800ED419006E800EE2
:103B4200005C02E1D551D35D04E2D5C8D3F8000E82
:103B5200D46FD651D7110EE0030ED815006ED9C816
:103B620001F0000E01160050011004E0010ED65FB4
:103B7200000ED75B800ED419006E800ED719005C40
:103B820002E1D651D35D05E2D351D65FD451D75B62
:103B920002D0D66BD76BC40ED815016ED951080B63
:103BA200026E0250080A02E1400E011808E1D651E5
:103BB200D71104E0010ED65F000ED75B1CD0C00EF9
:103BC200D815016ED951080B026E0250080A02E1A3
:103BD200800E011810E1800E006E800ED719005C75
:103BE20002E1D651020805E2020ED65F000ED75B53
:103BF20002D0D66BD76BD8A55DD0D8A312D0D8A1EE
:103C020003D02D0ECF6F02D02B0ECF6FC4C8E1FFB1
:103C1200C5C8E2FFCFC8E6FFC44BC52BE44BE52B7A
:103C220034D0D8A10BD0C4C8E1FFC5C8E2FF200E32
:103C3200E66EC44BC52BE44BE52B27D0C00ED8153E
:103C4200016ED951080B026E0250080A02E1800E81
:103C520001181BE1C4C8E1FFC5C8E2FF300EE66EE1
:103C6200C44BC52BE44BE52BD8AB03D0580ED06F19
:103C720002D0780ED06FC4C8E1FFC5C8E2FFD0C839
:103C8200E6FFC44BC52BE44BE52BD651D71111E00F
:103C9200C4C8E1FFC5C8E2FF300EE66EC44BC52BB7
:103CA200E44BE52B010ED65F000ED75BD651D71140
:103CB200EFE174D0D651D71113E0D8B711D0C4C8F0
:103CC200E1FFC5C8E2FF200EE66EC44BC52BE44BF4
:103CD200E52B010ED65F000ED75BD651D711EFE16F
:103CE200D8A312D0D8A103D02D0ED16F02D02B0EA3
:103CF200D16FC4C8E1FFC5C8E2FFD1C8E6FFC44B1B
:103D0200C52BE44BE52B0CD0D8A10AD0C4C8E1FFE7
:103D1200C5C8E2FF200EE66EC44BC52BE44BE52B73
:103D2200C00ED815016ED951080B026E0250080A56
:103D320002E1400E01180BE1C4C8E1FFC5C8E2FF71
:103D4200300EE66EC44BC52BE44BE52B27D0C00EDC
:103D5200D815016ED951080B026E0250080A02E111
:103D6200800E01181BE1C4C8E1FFC5C8E2FF300E96
:103D7200E66EC44BC52BE44BE52BD8AB03D0580EF3
:103D8200D26F02D0780ED26FC4C8E1FFC5C8E2FF7D
:103D9200D2C8E6FFC44BC52BE44BE52B800E006E68
:103DA200800ED419005C02E1D351D55D0BE2C4C888
:103DB200E1FFC5C8E2FF300EE66EC44BC52BE44BF3
:103DC200E52BECD7D3C800F0D4C801F0010ED35FC5
:103DD200000ED45B00500110D8B42AD1C00ED81501
:103DE200006E00C0E6F80AD1D3C800F0D4C801F0D2
:103DF200000ED4BFFF0E026E036E00360090013635
:103E02000236033600360090013602360336110EB2
:103E12000024F66E580E0120F76E000E0220F86E96
:103E22000900F5CF04F00900F5CF05F00900F5CF40
:103E320006F00900F5CF07F0E0C800F0E1C801F094
:103E4200E2C802F0E3C803F07AEC0CF00A0E046E4A
:103E5200000E056E066E076E7AEC0CF008C000F0DC
:103E620009C001F00AC002F00BC003F0300E0024BA
:103E7200D56FD3D0D8AB45D0D3C800F0D4C801F0A9
:103E8200000ED4BFFF0E026E036E003600900136A4
:103E920002360336003600900136023603365F0ED4
:103EA2000024F66E580E0120F76E000E0220F86E06
:103EB2000900F5CF04F00900F5CF05F00900F5CFB0
:103EC20006F00900F5CF07F0E0C800F0E1C801F004
:103ED200E2C802F0E3C803F07AEC0CF00F0E001611
:103EE200000E0116021603167F0E0024F66E580EFF
:103EF2000120F76E000E0220F86E0900F5CFD5F80A
:103F020044D0D3C800F0D4C801F0000ED4BFFF0ED5
:103F1200026E036E0036009001360236033600361A
:103F220000900136023603365F0E0024F66E580EFC
:103F32000120F76E000E0220F86E0900F5CF04F0A2
:103F42000900F5CF05F00900F5CF06F00900F5CF1D
:103F520007F0E0C800F0E1C801F0E2C802F0E3C8EF
:103F620003F07AEC0CF00F0E0016000E011602168A
:103F72000316900E0024F66E580E0120F76E000E06
:103F82000220F86E0900F5CFD5F847D0D3C800F06B
:103F9200D4C801F0000ED4BFFF0E026E036E0036CD
:103FA20000900136023603360036009001360236A2
:103FB2000336E10E0024F66E570E0120F76E000E56
:103FC2000220F86E0900F5CF04F00900F5CF05F0E4
:103FD2000900F5CF06F00900F5CF07F0E0C800F0C0
:103FE200E1C801F0E2C802F0E3C803F07AEC0CF099
:103FF200070E0014D56F300ED5270FD0E651000AF8
:10400200D8B4F2D6E651C00AD8B4EED6E651800A48
:10401200D8B430D7E651400AB9E0C4C8E1FFC5C8F8
:10402200E2FFD5C8E6FFC44BC52BE44BE52BCAD64D
:10403200D8A71AD0800E006E800ED719005C02E15C
:10404200D651000811E2C4C8E1FFC5C8E2FF200E44
:10405200E66EC44BC52BE44BE52B010ED65F000E7A
:10406200D75BD651D711EFE12EEF10F0E4C800F084
:06407200E5C801F0120098
:0E407800ACB202D00000FCD7C4C8ADFF1200ED
:104086000801C86B050EC85D0AE2C851C625E16E77
:10409600000EC721E26E200EE66EC82BF3D7C8517C
:1040A600C625E16E000EC721E26EE66AC807C85152
:1040B600C625C96F000EC721CA6F0A0E046E000E10
:1040C600056EC4C800F0C5C801F038EC00F008C0A1
:1040D60000F009C001F0300E0026C9C8E1FFCAC8C9
:1040E600E2FF00C0E6FF0A0E046E000E056EC4C8AD
:1040F60000F0C5C801F038EC00F000C0C4F801C0FB
:10410600C5F8000E011802E1000E001801E102D008
:06411600C807CDD712001E
:10411C00476AC4C845F0C5C83EF0CAEC04F000C0FC
:10412C0062F00050F00803E262C000F06CD0C6C828
:10413C0000F00032009E00503E26CAEC04F000C095
:10414C0062F00050F00803E262C000F05CD008019D
:10415C00C6514526CAEC04F000C062F00050F008CD
:10416C0003E262C000F04FD0C5C83EF0CAEC04F0C8
:10417C0000C062F00050F00803E262C000F043D0CF
:10418C00800E476EC4C845F0C5C83EF0CAEC04F0BA
:10419C0000C062F00050F00803E262C000F033D0BF
:1041AC00C6C800F00032009E00503E26CAEC04F057
:1041BC0000C062F00050F00803E262C000F023D0AF
:1041CC000801C6514526CAEC04F000C062F000504C
:1041DC00F00803E262C000F016D0C5C83EF0CAEC8D
:1041EC0004F000C062F00050F00803E262C000F07E
:1041FC000AD03FC03EF046C045F042C047F0CAEC82
:08420C0004F000C062F0120092
:10421400BE0E0001615D1CE2010E0801EC6F7BEC37
:1042240006F000C0C4F80050F00803E2C4C800F06F
:104234004FD00BEC08F03F0E046E000E056EC1EC7F
:104244000EF00050000164270150652399EC09F039
:10425400BE0E615D1CE2010E0801EC6F0FEC06F06E
:1042640000C0C4F80050F00803E2C4C800F030D025
:104274000BEC08F03F0E046E000E056EC1EC0EF060
:104284000050000164270150652399EC09F0BE0E2B
:10429400615D1CE2010E0801EC6F7BEC06F000C0CE
:1042A400C4F80050F00803E2C4C800F011D00BECCD
:1042B40008F03F0E046E000E056EC1EC0EF00050C7
:1042C400000164270150652399EC09F061C000F0F6
:0242D4001200D6
:1042D6005F0E0801C45D03E2460E006E1ED0C45197
:1042E600FF0A03E1480E006E18D0C451FE0A03E12E
:1042F6004C0E006E12D0C451FD0A03E1410E006E51
:104306000CD0F10EC45D07E262C061F062C022F01B
:0C431600530E006E02D0550E006E120017
:10432200476AC4C83EF0C4C845F0CAEC04F000C0F5
:1043320062F00050F00803E262C000F060D0C5C82D
:104342003EF0CAEC04F000C062F00050F00803E254
:1043520062C000F054D0C5C845F0CAEC04F000C0F9
:1043620062F00050F00803E262C000F048D0C4C816
:104372003EF0CAEC04F000C062F00050F00803E224
:1043820062C000F03CD0800E476EC4C845F0CAEC53
:1043920004F000C062F00050F00803E262C000F0D6
:1043A2002ED0C5C83EF0CAEC04F000C062F0005046
:1043B200F00803E262C000F022D0C5C845F0CAECA2
:1043C20004F000C062F00050F00803E262C000F0A6
:1043D20016D0C4C83EF0CAEC04F000C062F000502F
:1043E200F00803E262C000F00AD03FC03EF046C0CF
:1043F20045F042C047F0CAEC04F000C062F012007F
:10440200C69AFF0E0001776FFF0E786FFF0E796F6D
:10441200FF0E7A6F180E0801876F020E886FF70E73
:10442200896F080E8A6F949AAF51040A02E194864A
:1044320001D094969488C66AC79CC79EAF51C61293
:10444200B151C612B051C712B15305E0B251000AC0
:10445200D8B4C78C03D0B253D8A4C78CC68A120072
:10446200780E08018B6F400E8C6FC40E8D6F080E94
:104472008E6F6E0E7B6F460E7C6F000E7D6F000E90
:104482007E6F8C0E7F6F550E806F000E816F000E57
:10449200826FFF0E836FFF0E846F000E856F000E1A
:1044A200866FAC8A900EAB6E948E949C9EAA03D0BB
:0844B200AECF00F0FBD71200B1
:1044BA00B40E0801C26F080EC36FAFC8C4F8B0C803
:1044CA00C5F8B1C8C6F8B2C8C7F8B3C8C8F8C20EAA
:1044DA00C96F080ECA6F29EC10F000C0C0F801C0FD
:1044EA00C1F80050AF25E16E0150B021E26EE66AD4
:0A44FA00C0C800F0C1C801F01200B4
:10450400F250026EF29E0500FF6A0150FE6E0050EA
:08451400FD6E02BEF28E1200E2
:10451C000801B56BB66BAFC8B7F8B0C8B8F8800E69
:10452C00B019006E800E005C02E1000EAF5D0BE274
:10453C00010EB56F000EB66FAF510008B76FB0C863
:10454C00B8F8000EB857B7C8C4F8B8C8C5F8B1C8A1
:10455C00C6F8B2C8C7F891DD060EB36F000EB46F83
:10456C00000E006EB451005C02E1B351000819E278
:10457C00B351B125E16EB451B221E26E010EB35DBF
:10458C00006E000EB459016E0050B125E96E015059
:10459C00B221EA6EEECFE6FF010EB35F000EB45B04
:1045AC00DFD7B1C8E1FFB2C8E2FF200EE66EB5510D
:1045BC00B6111AE0B36BB46BB351B125E96EB451BB
:1045CC00B221EA6EEE50200A03E1B34BB42BF4D7C0
:1045DC00010EB35F000EB45BB351B125E16EB45163
:0A45EC00B221E26E2D0EE66E120001
:1045F6000801B26B030EB25D0AE2B251B025E16E5C
:10460600000EB121E26E200EE66EB22BF3D7B25148
:10461600B025E16E000EB121E26EE66AB207B25134
:10462600B025B36F000EB121B46F0A0E046EAFC889
:1046360000F0BBEC04F008C000F0300E0026B3C852
:10464600E1FFB4C8E2FF00C0E6FF0A0E046EAFC881
:1046560000F0BBEC04F000C0AFF80050000A01E126
:0846660002D0B207DCD71200FC
:10466E00AECF01F0ABA202D0AB98AB8801C000F088
:02467E00120028
:1046800028D0020E0801B06F080EB16F030EB26F92
:1046900033D00801020EB06F0A0EB16F040EB26F74
:1046A0002BD00801060EB06F120EB16F060EB26F5E
:1046B00023D008010A0EB06F1E0EB16F0A0EB26F42
:1046C0001BD00801160EB06F420EB16F160EB26FFE
:1046D00013D02150010AD5E02150020AD2E0215026
:1046E000030AD7E02150040ADCE02150050AD9E092
:1046F0002150060ADEE0E5D70001646B656B080E09
:10470000215C00E3616B3F6A466A426A446A585022
:10471000010AD8B4586A800E436E8186350E0D6E3C
:104720000D2EFED7CAEC04F000C062F000C05EF0AF
:1047300000C048F00050B10805E262C061F0540EBC
:10474000006E19D2190E625D03E2450E006E13D29F
:10475000436A8196350E0D6E0D2EFED78182CAEC0E
:1047600004F000C062F000C05FF00050F00804E206
:1047700062C0C4F8B0DDFFD100016251C80807E291
:1047800062C061F062C022F0540E006EF4D199EC68
:1047900009F05F508C0834E23DDD00C0AFF80050F6
:1047A000F00804E2AFC8C4F896DDE5D13FC03EF0A2
:1047B00046C045F042C047F0CAEC04F000C062F0C9
:1047C0000050F00804E262C0C4F885DDD4D10BECDF
:1047D00008F03F0E046E000E056EC1EC0EF00050A6
:1047E000000164270150652399EC09F06251BE086D
:1047F00007E262C061F062C022F0530E006EBBD1CE
:10480000030E215C23E2020E0801C46F060EC56F81
:1048100088DD00C0AFF80050F00804E2AFC8C4F86B
:104820005ADDA9D10BEC08F03F0E046E000E056EA8
:10483000C1EC0EF064C004F065C005F010EC00F0AF
:1048400000C064F001C065F099EC09F0030E0801A6
:10485000C46F080EC56F65DD00C0AFF80050F008EA
:1048600004E2AFC8C4F837DD86D10BEC08F03F0E88
:10487000046E000E056EC1EC0EF0005000016427BE
:104880000150652399EC09F0050E0801C46F0C0E68
:10489000C56F47DD00C0AFF80050F00804E2AFC8B4
:1048A000C4F819DD68D10BEC08F03F0E046E000E61
:1048B000056EC1EC0EF00050000164270150652325
:1048C000215005081EE20C0E0801C46F280EC56FAA
:1048D00028DD00C0AFF80050F00804E2AFC8C4F80B
:1048E000FADC49D10BEC08F03F0E046E000E056EA9
:1048F000C1EC0EF00050000164270150652399ECD3
:1049000009F0215006081EE20F0E0801C46F320E96
:10491000C56F07DD00C0AFF80050F00804E2AFC873
:10492000C4F8D9DC28D10BEC08F03F0E046E000E61
:10493000056EC1EC0EF000500001642701506523A4
:1049400099EC09F03FC03EF046C045F042C047F048
:10495000CAEC04F000C062F00050F00804E262C04B
:10496000C4F8B9DC08D156DC00C0AFF80050F0083C
:1049700004E2AFC8C4F8AFDCFED03FC03EF046C092
:1049800045F042C047F0CAEC04F000C062F00050AD
:10499000F00804E262C0C4F89EDCEDD00BEC08F035
:1049A0003F0E046E000E056EC1EC0EF000500001CB
:1049B00064270150652399EC09F06251BE0807E2B3
:1049C00062C061F062C022F0530E006ED4D0B0C855
:1049D000C4F8B0C8C5F8B2C8C6F88EEC20F000C064
:1049E000AFF80050F00804E2AFC8C4F874DCC3D0DC
:1049F0000BEC08F03F0E046E000E056EC1EC0EF0DD
:104A00000050000164270150652399EC09F05A0E0B
:104A1000615D20E2B1C8C4F8B0C8C5F8B2C8C6F834
:104A20008EEC20F000C0AFF80050F00804E2AFC8F0
:104A3000C4F851DCA0D00BEC08F03F0E046E000E61
:104A4000056EC1EC0EF00050000164270150652393
:104A500099EC09F05A0E615D23E2B1C8C4F8B1C8FF
:104A6000C5F80801C533C59FB2C8C6F88EEC20F062
:104A700000C0AFF80050F00804E2AFC8C4F82BDC67
:104A80007AD00BEC08F03F0E046E000E056EC1EC00
:104A90000EF00050000164270150652399EC09F0E5
:104AA0005A0E615D23E2B0C8C4F8B1C8C5F8080168
:104AB000C533C59FB2C8C6F88EEC20F000C0AFF871
:104AC0000050F00804E2AFC8C4F805DC54D00BEC89
:104AD00008F03F0E046E000E056EC1EC0EF00050A3
:104AE000000164270150652399EC09F03FC03EF0B6
:104AF00046C045F042C047F0CAEC04F000C062F086
:104B00000050F00805E262C0C4F86BEC21F033D02D
:104B1000CBEC0FF000C0AFF80050F00805E2AFC8D2
:104B2000C4F86BEC21F027D03FC03EF046C045F002
:104B300042C047F0CAEC04F000C062F00050F00838
:104B400005E262C0C4F86BEC21F015D00BEC08F064
:104B50003F0E046E000E056EC1EC0EF00050000119
:104B600064270150652399EC09F0416A819462C081
:084B7000C4F86BEC21F0120007
:104B7800AFC821F0FF0E5F6EFF0E5E6EFF0E0001E4
:104B8800606F680E0C6EE40E0D6E0D2EFED70C2EA7
:104B9800FCD700003C50010A09E12C0E0801B06F57
:104BA800010EB16F2150B027D8B0B12B3C50020A8A
:104BB80009E10801900EB06F010EB16F2150B027C6
:104BC800D8B0B12B0801B0C8C4F8B1C8C5F8C1EC59
:104BD8000FF000C03EF0000EB025006E020EB121AD
:104BE800016E00C0B0F801C0B1F800C0C4F801C03F
:104BF800C5F8C1EC0FF07F0E0014456EB0C8C4F8BC
:104C0800B1C8C5F8C1EC0FF0800E0014476E3E50D5
:104C1800FF0A05E13E6A456A476A436A05D0800E85
:0E4C28003E14436E3F0E3E1670EC02F012007A
:104C3600A6A202D00000FCD7A69CB0C8AAFFAFC8A7
:104C4600A9FFB1C8A8FFA69EA684F2CF00F0F29EE7
:104C5600550EA76EAA0EA76EA68200BE02D0F29EC1
:104C660001D0F28EA694A1B802D00000FCD7A1987C
:024C760012002A
:104C78000801B26BAFC8E9FFB0C8EAFFEECFB1F8E0
:104C8800B151000A0FE0B1C8C4F83CEC20F00801AB
:104C9800B22BB251AF25E96E000EB021EA6EEECF0D
:064CA800B1F8EED7120086
:104CAE000900F5CFE6FF0006FBE10106F9E112006F
:104CBE00700ED36E400E9B6E030E0F01386F396B64
:104CCE003A6BFF0E926EF10E936E900E946E010E75
:104CDE00616EF19E826A080E816EE00E426FB60E14
:104CEE00C06E080EC16E010EC26ECF6ACE6A320E53
:104CFE00CD6ECD80D76AD66A070ED56ED58EB886A4
:104D0E00030EB06E400EAF6EAC8431EC22F0010E8D
:104D1E00AF6FB06BB16B010EB26F01EC22F01200EF
:104D2E009FDC00C09DF800502A0A06E10801976B2F
:104D3E00010E406EC5EF2AF04050010A17E108013E
:104D4E009D510D0A03E1020E406E9D6B660EE16EE3
:104D5E00000EE26E9751E126D8B0E22A9DC8E6FF1A
:104D6E00972B9751100A02E10F0E976F4050020ACF
:104D7E00D8A4C5EF2AF078D38280010E416E8184CB
:104D8E0078DC00C03DF03FC03EF046C045F042C06A
:104D9E0047F044C043F0CAEC04F000C062F0416A30
:104DAE00819467513F0A64E13EC0AFF8630E08017B
:104DBE00B06F000EB16F18DC630EAF6F000EB06FE8
:104DCE0054DF1E0EAF6F000EB06F4FDF45C0AFF851
:104DDE00630EB06F000EB16F07DC630EAF6F000E87
:104DEE00B06F43DF150EAF6F000EB06F3EDF47C0E2
:104DFE00AFF8630EB06F000EB16FFBEC22F0630ED6
:104E0E00AF6F000EB06F31DF180EAF6F000EB06FC8
:104E1E002CDF62C0AFF8630EB06F000EB16FFBEC0B
:104E2E0022F0630EAF6F000EB06F1FDF1B0EAF6F61
:104E3E00000EB06F1ADF64C0C4F865C0C5F8630E0B
:104E4E00C66F000EC76F43EC20F0630EAF6F000EFF
:104E5E00B06F0BDF390EAF6F000EB06F06DF3DC0C7
:104E6E00C4F83CEC20F00D0E0801C46F3CEC20F0B1
:104E7E003C50010A09E12C0E0801AD6F010EAE6F18
:104E8E002150AD27D8B0AE2B3C50020A09E10801E3
:104E9E00900EAD6F010EAE6F2150AD27D8B0AE2B78
:104EAE000801ADC8AFF8AEC8B0F843503E24B16F9C
:104EBE00BBDE000E0801AD25006E020EAE21016EA6
:104ECE0000C0ADF801C0AEF800C0AFF801C0B0F838
:104EDE0047504524B16FA8DE82904FD308019751F9
:104EEE00040A0EE1300E0001675D006E0A0E00022C
:104EFE00F3CF9EF8300E685D006E005008019E27BD
:104F0E009751030A1CE1000167513F0A13E121C0CA
:104F1E00AFF8630E0801B06F000EB16FFBEC22F01C
:104F2E00630EAF6F000EB06FA0DE0D0EC46F3CECC3
:104F3E0020F023D3300E0001675D08019E6F9E5155
:104F4E00000806E20B0E9E5D03E29EC8AFF80DDE72
:104F5E0014D308019751050A16E1300E0001675D62
:104F6E00006E640E0002F3CF45F0300E685D006EE9
:104F7E000A0E0002F3CF00F000504526300E695D98
:104F8E00006E0050452608019751040A0DE1300EBF
:104F9E000001675D006E0A0E0002F3CF45F0300E81
:104FAE00685D006E0050452608019751030A1BE10B
:104FBE00000167513F0A13E146C0AFF8630E0801C6
:104FCE00B06F000EB16FFBEC22F0630EAF6F000EF0
:104FDE00B06F4BDE0D0EC46F3CEC20F0CED2300E17
:104FEE000001675D456E45507F0802E27F0E456EFB
:104FFE0070EC02F0C2D208019F6BA06B040EA05D94
:10500E0002E1000E9F5D0FE29FC8AFF8A0C8B0F896
:10501E00FF0EB16F09DEA682A6A201D0FCD7080151
:10502E009F4BA02BEBD7440EC46F3CEC20F00D0E23
:10503E000801C46F3CEC20F000016751300A02E118
:10504E00416A81946751310A03E1010E416E8184F8
:10505E0067513F0A16E14150000A05E1300E080182
:10506E00C46F3CEC20F04150010A05E1310E0801FD
:10507E00C46F3CEC20F00D0E0801C46F3CEC20F028
:10508E007CD27BD222C0AFF8630E0801B06F000E47
:10509E00B16FFBEC22F0630EAF6F000EB06FE5DD6B
:1050AE000D0EC46F3CEC20F068D200016751300A3F
:1050BE00D8B4476A6751310A02E1800E476E6751D4
:1050CE003F0A16E14250000A05E1300E0801C46F96
:1050DE003CEC20F04250800A05E1310E0801C46F0D
:1050EE003CEC20F00D0E0801C46F3CEC20F045D2D4
:1050FE0070EC02F042D2230E0801AF6F000EB06FBB
:10510E00B4DD0D0EC46F3CEC20F037D20801975180
:10511E00050A16E1300E0001675D006E640E000296
:10512E00F3CF3EF0300E685D006E0A0E0002F3CF34
:10513E0000F000503E26300E695D006E00503E2697
:10514E0008019751040A0DE1300E0001675D006EF3
:10515E000A0E0002F3CF3EF0300E685D006E005076
:10516E003E2608019751030A1BE1000167513F0AD1
:10517E0013E13FC0AFF8630E0801B06F000EB16FC0
:10518E00FBEC22F0630EAF6F000EB06F6EDD0D0EF6
:10519E00C46F3CEC20F0F1D1300E0001675D3E6E25
:1051AE003E503F0802E23F0E3E6E70EC02F0E5D13B
:1051BE0000016751310A02E1010E3C6E6751320A5D
:1051CE0002E1020E3C6E67513F0A16E13C50010AA5
:1051DE0005E1310E0801C46F3CEC20F03C50020A90
:1051EE0005E1320E0801C46F3CEC20F00D0E0801F3
:1051FE00C46F3CEC20F0C1D121C0AFF8B6DCBDD1FC
:10520E004450000A03E108019B6B03D00801010E14
:10521E009B6F9BC8A7F8000E9BBFFF0EA86F425056
:10522E00000A02E19C6B02D0010E9C6F9CC8A5F88F
:10523E00000E9CBFFF0EA66F3FC0A1F8000EA26F1E
:10524E0046C0A3F8000EA46F48C0A9F8000EAA6FBE
:10525E0022C0ABF8000EAC6F630EAF6F000EB06FD6
:10526E00390EB16F580EB26F000EB36FA1C8B4F8FD
:10527E00A2C8B5F8A3C8B6F8A4C8B7F8A5C8B8F8B8
:10528E00A6C8B9F8A7C8BAF8A8C8BBF8A9C8BCF888
:10529E00AAC8BDF8ABC8BEF8ACC8BFF85DEC22F02A
:1052AE00630EAF6F000EB06FE0DC0D0EC46F3CEC02
:1052BE0020F063D13C50010A09E12C0E0801AD6FBC
:1052CE00010EAE6F2150AD27D8B0AE2B3C50020A66
:1052DE0009E10801900EAD6F010EAE6F2150AD27A2
:1052EE00D8B0AE2B0801ADC8AFF8AEC8B0F8435079
:1052FE003E24B16F99DC000E0801AD25006E020E42
:10530E00AE21016E00C0ADF801C0AEF800C0AFF81E
:10531E0001C0B0F847504524B16F86DC2ED153EC56
:10532E0000F000C062F00050FF0A04E1480EC46FA6
:10533E003CEC20F000016251FE0A05E14C0E080122
:10534E00C46F3CEC20F0FE0E0001625D36E262C0DE
:10535E00AFF8630E0801B06F000EB16FFBEC22F0D8
:10536E00630EAF6F000EB06F80DC200EC46F3CEC8E
:10537E0020F08FC8AFF890C8B0F8630E0801B16F77
:10538E00000EB26F8EEC22F0630EAF6F000EB06F98
:10539E006CDC200EC46F3CEC20F091C8AFF892C8C4
:1053AE00B0F8630E0801B16F000EB26F8EEC22F0F2
:1053BE00630EAF6F000EB06F58DC08010D0EC46F98
:1053CE003CEC20F0DAD03DC0C4F83CEC20F00D0EE1
:1053DE000801C46F3CEC20F0D0D05AC000F05BC086
:1053EE0001F082EC22F0C9D0530E0801AF6F000E0F
:1053FE00B06F3BDC0D0EC46F3CEC20F0BED0000154
:10540E006751300A0BE1586A8196350E0D6E0D2EDE
:10541E00FED7818221C0AFF8BCEC25F000016751A8
:10542E00310A08E1010E586E8186350E0D6E0D2E75
:10543E00FED7819267513F0A16E15850000A05E1E6
:10544E00300E0801C46F3CEC20F05850010A05E103
:10545E00310E0801C46F3CEC20F00D0E0801C46F34
:10546E003CEC20F08AD089D000016651410AD8B4B4
:10547E0083D46651610AD8B47FD46651420AD8B437
:10548E002DD56651620AD8B429D56651430AD8B4CF
:10549E0060D56651630AD8B45CD56651450AD8B456
:1054AE00AAD56651650AD8B4A6D56651440AD8B4B1
:1054BE00C3D56651640AD8B4BFD56651460AD8B46E
:1054CE00E1D56651660AD8B4DDD56651480AD8B41E
:1054DE00ECD56651680AD8B4E8D56651490AD8B4F5
:1054EE000AD66651690AD8B406D666514C0AD8B4A3
:1054FE000DD666516C0AD8B409D666514E0AD8B488
:10550E0057D666516E0AD8B453D66651500AD8B4DF
:10551E0077D66651700AD8B473D66651510AD8B48C
:10552E00C9D66651710AD8B4C5D66651520AD8B4D6
:10553E00F6D66651720AD8B4F2D66651530AD8B46A
:10554E0042D76651730AD8B43ED76651550AD8B4BD
:10555E0044D76651750AD8B440D76651560AD8B4A6
:10556E0043D76651760AD8B43FD76651590AD8B494
:0E557E0046D76651790AD8B442D7406A120067
:0A558C00000E9EBA010E006E120020
:1055960051EC2CF05FEC26F070EC02F081864A6A42
:1055A6004B6A800E4B18006E800E020A005C02E108
:1055B600000E4A5C21E24AC000F04BC001F0003602
:1055C600009001367B0E0024E16E000E0120E26E93
:1055D600E66AE66A4AC000F04BC001F00036009069
:1055E60001367B0E0024E16E040E0120E26EE66AAF
:1055F600E66A4A4A4B2AD5D74A6A4B6AC4DF005044
:10560600010A02E197EC26F0000E81B0010E0001BE
:10561600766F76514918D8B47BD03F0E0C6E550E76
:105626000D6E0D2EFED70C2EFCD776C049F07651A6
:10563600000A6EE108019A6B8280010E596E010E16
:10564600416E818453EC00F000C09AF89A51FE0A2C
:1056560009E153EC00F000C09AF881A002D0FD0EDB
:105666009A6FF4D70001646B656B08019A51FD0AC5
:1056760013E040EC23F000C03DF03FC03EF046C0D2
:1056860045F042C047F0CAEC04F000C062F061C0C9
:1056960060F061C022F002D0410E3D6E416A8194F5
:1056A600596A82903C50010A09E12C0E0801986F54
:1056B600010E996F21509827D8B0992B3C50020AB9
:1056C60009E10801900E986F010E996F21509827F5
:1056D600D8B0992B080198C8AFF899C8B0F84350CC
:1056E6003E24B16F1BEC26F0000E08019825006ED3
:1056F600020E9921016E00C098F801C099F800C009
:10570600AFF801C0B0F847504524B16F1BEC26F046
:10571600030E0C6E120E0D6E0D2EFED70C2EFCD740
:0657260000006CD7FFD764
:1058A20010EE15F04D0E006E010E016E2C0EF66E0E
:0E58B200570EF76E000EF86E57EC26F012003F
:03572C002C20002E
:03572F002C20002B
:035732002C200028
:035735002C200025
:015738000B65
:01573900F07F
:10573A004852353030204154552076657273696F6E
:06574A006E20322E31003A
:035750002C20000A
:015753000154
:015754005301
:015755000053
:015756000052
:015757000051
:015758000050
:01575900004F
:01575A00004E
:01575B00004D
:01575C00004C
:01575D00004B
:01575E00004A
:01575F00F059
:015760000147
:02576100000046
:07576300286E756C6C290033
:05576A00322E31460063
:01576F000138
:015770000038
:0457710000F600003E
:01577500FF34
:01577600FF33
:01577700FF32
:015778000030
:105779000000007F000020820000488500007A8830
:1057890000401C8C0050438F002474928096189618
:1057990020BC3E99286B6E9CF90215A0EC782DC1AE
:0457A900CAF249E215
:1057AD000000007FCDCC4C7B0AD723786F12037598
:1057BD0017B75171ACC5276EBD37066B95BF5667D0
:1057CD0077CC2B645F700961FFE65B5D08E53C3CBF
:0457DD006042221BE9
:1057E100010000000800000040000000000200006D
:1057F10000100000008000000000040000002000F4
:10580100000000010000000800000040000000004E
:10581100010000000A00000064000000E80300002D
:1058210010270000A086010040420F0080969800DA
:0858310000E1F50500CA9A3BF5
:105839002D4C253033752D43253033752D482530B2
:1058490031752D42253031752D53253033752D464F
:06585900253033752D001F
:10585F000100000010000000000100000010000017
:10586F000000010000001000000000010000001007
:10587F003031323334353637383941424344454677
:01588F000018
:1058900030313233343536373839616263646566A6
:0158A0000007
:020000040030CA
:0D000100381F3CFFBF81FF0FC00FE00F4014
:00000001FF
